:020000040800F2
:1000000098500020250300083316000897150008B3
:10001000311600080F070008391A00080000000018
:100020000000000000000000000000006502000861
:100030001107000800000000C10200089D1600081A
:100040003F0300083F0300083F0300083F03000888
:100050003F0300083F0300083F0300083F03000878
:100060003F0300083F0300083F0300083F03000868
:100070003F0300083F0300083F0300083F03000858
:100080003F0300083F0300083F0300083F03000848
:100090003F0300083F0300083F0300083F03000838
:1000A0003F0300083F0300083F0300083F03000828
:1000B0003F0300083F0300083F0300083F03000818
:1000C0003F0300083F0300083F0300083F03000808
:1000D0003F0300083F0300082D1A00083F030008F3
:1000E000130700083F0300083F0300083F03000810
:1000F0003F0300083F0300083F0300083F030008D8
:100100003F0300083F0300083F0300083F030008C7
:100110003F0300083F0300083F0300083F030008B7
:100120003F0300083F0300083F0300083F030008A7
:100130003F03000800000000000000003F0300082B
:100140003F0300083F0300083F0300083F03000887
:100150003F0300083F0300083F0300083F03000877
:100160003F0300083F0300083F0300083F03000867
:100170003F0300083F0300083F03000800000000A1
:10018000000000003F030008000000000000000025
:100190003F03000800000000000000003F030008CB
:1001A0000000000000000000000000003F03000805
:1001B0003F0300083F0300083F0300083F03000817
:1001C0003F03000800F002F800F03CF80AA090E8B5
:1001D000000C82448344AAF10107DA4501D100F002
:1001E00031F8AFF2090EBAE80F0013F0010F18BF93
:1001F000FB1A43F001031847303100005031000072
:10020000103A24BF78C878C1FAD8520724BF30C842
:1002100030C144BF04680C60704700000023002414
:1002200000250026103A28BF78C1FBD8520728BF06
:1002300030C148BF0B6070471FB503F033F81FBDD6
:1002400010B510BD00F029FA1146FFF7F5FF01F0D7
:1002500005FC00F047FA03B4FFF7F2FF03BC00F01F
:100260004FFA00002C4B19680868B0E8F04F80F393
:100270000988BFF36F8F4FF0000080F3118870473B
:100280000000000008480068006880F308884FF00C
:10029000000080F3148862B661B6BFF34F8FBFF3DE
:1002A0006F8F00DF00BF00BF08ED00E0DFF80C003B
:1002B000016841F470010160704700BF88ED00E003
:1002C000EFF30980BFF36F8F134B1A681EF0100F06
:1002D00008BF20ED108A20E9F04F106009B44FF0FC
:1002E000500080F31188BFF34F8FBFF36F8F02F080
:1002F000ABFA4FF0000080F3118809BC1968086858
:10030000B0E8F04F1EF0100F08BFB0EC108A80F379
:100310000988BFF36F8F70471C000020EFF3058042
:10032000704700000948804709480047FEE7FEE79C
:10033000FEE7FEE7FEE7FEE7FEE7FEE7FEE7FEE795
:1003400004480549054A064B704700004917000854
:10035000C5010008984A002098500020984C0020C1
:10036000984C002053EA020C00F069802DE9F04B14
:100370004FF00006002B1FBFB3FA83F503FA05F414
:1003800024FA05F65E4012BF1643B2FA82F502FA6D
:1003900005F4C5F120051EBF22FA05FC44EA0C0451
:1003A000203556EA044C4FEA144418BF641C4FF041
:1003B00000084FF00009904271EB030C39D300297B
:1003C00019BFB1FA81F701FA07F6B0FA80F700FA1F
:1003D00007F6C7F120071EBF20FA07FC46EA0C0605
:1003E0002037B6FBF4FCA7EB0507103F07F01F0B07
:1003F000CBF120060CFA0BFB2CFA06F644BFB346F1
:100400000026202FA4BF5E464FF0000B5BEA060CCF
:1004100008BF4FF0010B19EB0B09ABFB027C48EB5B
:100420000608C01B06FB02CC0BFB03CC71EB0C01D6
:10043000C1E70B46024641464846BDE8F08B13B57E
:100440004FF000004FF00001AFF30080BDE81C400A
:100450007047401ECAB210F8011F8A4202D000291C
:10046000F9D10020704740EA0103024630B59B07EE
:1004700010D14FF0013400E008C208C91D1B9D4394
:1004800015EAC41FF8D013F0FF0102F8011B0DD0CC
:100490001B0AF8E711F8013B002B02F8013B05D0DD
:1004A00011F8013B002B02F8013BF3D130BD10B530
:1004B000431C02E010F8011B71B18107FAD14FF023
:1004C000013202C88C1A8C4314EAC211F9D0C01A46
:1004D0000A0603D0C01E10BDC01A10BD0A0401D008
:1004E000801E10BD0902FCD0401E10BD421E12F835
:1004F000013F002BFBD111F8013B002B02F8013B1F
:10050000F9D17047032A40F2308010F0030C00F05C
:10051000158011F8013BBCF1020F624498BF11F83D
:1005200001CB00F8013B38BF11F8013BA2F10402F6
:1005300098BF00F801CB38BF00F8013B11F003036E
:1005400000F05780083AC0F0088051F8043B083AA0
:1005500051F804CBA0E80810F5E7121D5CBF51F874
:10056000043B40F8043BAFF30080D20724BF11F8EE
:10057000013B11F801CB48BF11F8012B24BF00F853
:10058000013B00F801CB48BF00F8012B704702F097
:10059000FF0343EA032242EA024200F05EB84FF052
:1005A000000200B5134694469646203922BFA0E8C3
:1005B0000C50A0E80C50B1F12001BFF4F7AF0907CF
:1005C00028BFA0E80C5048BF0CC05DF804EB8900C0
:1005D00028BF40F8042B08BF704748BF20F8022B03
:1005E00011F0804F18BF00F8012B7047704770471B
:1005F000704710B5203AC0F00B80B1E81850203A8F
:10060000A0E81850B1E81850A0E81850BFF4F5AFB2
:100610005FEA027C24BFB1E81850A0E8185044BF3C
:1006200018C918C0BDE810405FEA827C24BF51F8A9
:10063000043B40F8043B08BF7047D20728BF31F89D
:10064000023B48BF11F8012B28BF20F8023B48BFEE
:1006500000F8012B70474FF000020429C0F012800F
:1006600010F0030C3FF49DAFCCF1040CBCF1020F71
:1006700018BF00F8012BA8BF20F8022BA1EB0C013A
:10068000FFF78FBF5FEAC17C24BF00F8012B00F8A1
:10069000012B48BF00F8012B7047754600F02CF87D
:1006A000AE4605006946534620F00700854618B05F
:1006B00020B5FFF745FEBDE820404FF000064FF0A3
:1006C00000074FF000084FF0000B21F00701AC4687
:1006D000ACE8C009ACE8C009ACE8C009ACE8C009A6
:1006E0008D46704710B50446AFF300802046BDE844
:1006F0001040FFF7B0BD000000487047384A0020A6
:1007000001491820ABBEFEE7260002007047FEE755
:1007100070474FF4005000F06FB82DE9F0410446E7
:10072000876D00F071F9064694F83500002502281F
:1007300006D08020606584F834500120BDE8F08147
:100740002068016821F0160101602068416921F0EC
:1007500080014161206C08B9A06C20B1206801685B
:1007600021F0080101602068016821F001010160A9
:100770000CE000F049F9801B052807D920206065AE
:10078000032084F8350084F83450D7E720680068E7
:10079000C007EED194F85C103F208840B86001207B
:1007A00084F8350084F834500020C7E790F83510FD
:1007B000022903D08021416501207047052180F87E
:1007C00035100068016821F00101016000207047C8
:1007D000B0F5005F05D164230F2202A1054800F0A7
:1007E00089BE7047427574746F6E20707265737342
:1007F000656421009C000020044910B50A6802428B
:1008000002D00860FFF7E4FF10BD0000143C014077
:100810002DE9F84FDFF8ACA10022012403254FF0A9
:100820000F090AF1040BAAF1040E00BF0B6804FAC9
:1008300002F63340B3426ED10F7907F00307012F60
:1008400001D0022F16D187684FEA420805FA08FC4A
:1008500027EA0C07D1F80CC00CFA08FC4CEA070C8C
:10086000C0F808C04768B7430E79C6F30016964033
:100870003E4346600E79F643B6070AD0C6684FEA93
:10088000420C05FA0CF7BE438F6807FA0CF73743A2
:10089000C7600E7906F00306022E10D1D60800EBD1
:1008A0008608D8F8206057074FEAD76C09FA0CF78A
:1008B000BE430F6907FA0CF73743C8F82070066883
:1008C0004FEA420C05FA0CF7BE430F7907F0030715
:1008D00007FA0CF7374307604E6816F4403F6BD0B9
:1008E000394E376847F480473760366822F003078F
:1008F00006F480460096354E07EB060CDCF80868D7
:1009000097074FEA177809FA08F7BE43304FB84205
:1009100002D100271FE04FE02E4FB84201D101273E
:1009200019E02D4FB84201D1022714E02B4FB842F5
:1009300001D103270FE02A4FB84201D104270AE072
:10094000284FB84201D1052705E0274FB84201D111
:10095000062700E0072707FA08F73743CCF808789E
:10096000DAF800605746D1F804C09E435FEACC2C09
:1009700000D51E433E60DBF800605F46D1F804C03E
:100980009E435FEA8C2C00D51E433E60DEF800607B
:100990007746D1F804C09E435FEA8C3C00D51E43E5
:1009A0003E60084F083F3E68D1F804C09E435FEAAE
:1009B000CC3C00D51E433E60521C102AFFF436AFDB
:1009C000BDE8F88F083C0140443802400030014047
:1009D000000002400004024000080240000C0240F7
:1009E000001002400014024000180240426921EA4F
:1009F00002030A4043EA0241816170470AB1816102
:100A000070470904FBE70000014880687047000058
:100A10000C00002002488168027811448160704710
:100A20000C0000200B4810B5016841F40071016012
:100A3000016841F480610160016841F480710160E6
:100A4000032000F073F80F2000F006F800F024F8FF
:100A5000002010BD003C024070B50D4D04464FF41F
:100A60007A712878B1FBF0F00A490968B1FBF0F01F
:100A700000F040FB48B9102C07D200222146501E3E
:100A800000F034F800206C6070BD012070BD0000E3
:100A90000C000020180000200C4882B0016841F4CE
:100AA00080410160006800F4804000900748001F0A
:100AB000016841F0805101600068002200F0805020
:100AC00000900F21901E02B000F010B84438024090
:100AD000002809DB00F01F0201219140400980003D
:100AE00000F1E020C0F8001170470000F0B40E4B98
:100AF0001B680C46C3F30223C3F10705042D00D97C
:100B00000425191D072901D2002300E0DB1E012660
:100B100006FA05F1491E214099409E40761E164076
:100B20003143F0BC00F089BF0CED00E0064900F055
:100B3000070208684FF6FF03184040EA0220034A04
:100B400010430860704700000CED00E00000FA055B
:100B50002DE9F0470E46050065D0DFF81481D8F87E
:100B60000000F7B200F00F00B04207D288F8007022
:100B7000D8F8000000F00F00B04254D128683D4C76
:100B8000810712D5400703D5206840F4E05020606B
:100B90002878000703D5206840F460402060206872
:100BA000A96820F0F000084320602878C0072DD005
:100BB000304968680839012812D0022813D0032868
:100BC00011D00968890700292DDA216821F0030175
:100BD00001432160FFF718FF814641F2883A0EE099
:100BE00009688903EFE709688901ECE7FFF70CFF63
:100BF000A0EB0901514502D90320BDE8F087206828
:100C0000696800F00C00B0EB810FEFD1D8F800104C
:100C1000404601F00F01B14207D90770006800F0AB
:100C20000F00B04201D00120E7E72878400705D542
:100C30002068E96820F4E050084320602878000725
:100C400006D52068296920F4604040EAC100206090
:100C500000F038F82168084AC1F30311515CC8401C
:100C60000649086006480068FFF7F6FE0020C4E762
:100C7000003C024008380240F8320008180000200A
:100C8000100000200448054900680968044AC1F3BF
:100C90008221515CC840704718000020083802408B
:100CA000083300080448054900680968044AC1F38C
:100CB0004231515CC840704718000020083802409B
:100CC00008330008224810B5006810F00C022148D3
:100CD00015D02149042A11D01D4C241F082A0FD0F9
:100CE0000C2A0CD12268236802F03F025B0221D556
:100CF0002068C0F38810A0FB010120E0084610BD69
:100D00002268236802F03F025B0205D52068C0F329
:100D10008810A0FB010104E02168C1F38811A1FB48
:100D200000010023FFF71EFB2168C1F30141491CAC
:100D300049000AE02168C1F38811A1FB00010023EA
:100D4000FFF710FB2168C1F30271B0FBF1F010BD99
:100D5000083802400024F40040787D012DE9F84F66
:100D600004007DD0DFF878B32078ABF10407C0072A
:100D7000A7F1040550D0DBF800105846C1F38101FB
:100D800001290FD00168C1F38101022902D139681C
:100D9000490207D40068C0F38100032809D13868EC
:100DA000400206D52868800336D560680028D8D070
:100DB00032E06068B0F5803F10D0B0F5A02F286811
:100DC00010D020F480302860286820F4802028602B
:100DD0006068A0B1FFF718FE06460CE0286840F4F2
:100DE0008030F4E740F480202860F7E7FFF70CFE3E
:100DF000801B642876D828688003F7D50CE0FFF7BD
:100E000003FE064605E000BFFFF7FEFD801B6428D9
:100E1000F0D828688003F7D42078DFF8C8928007DC
:100E20004FF0000A44D5DBF80010584611F00C0FC3
:100E30000FD00168C1F38101022902D1396849024A
:100E400007D50068C0F3810003280AD13868400242
:100E500007D42868800715D5E068012800D111E083
:100E60003AE1E068B0B10120C9F80000FFF7CCFD1D
:100E7000064604E0FFF7C8FD801B0228BAD82868A0
:100E80008007F7D52868216920F0F80040EAC10002
:100E900028600DE0C9F800A0FFF7B6FD064604E0A3
:100EA000FFF7B2FD801B02281CD828688007F7D402
:100EB0002078000727D5DFF828828B48616908F180
:100EC0006C0881B101210160FFF79EFD064604E038
:100ED000FFF79AFD801B022804D8D8F8000080078D
:100EE000F6D510E089E0C0F800A0FFF78DFD0646BA
:100EF00005E000BFFFF788FD801B02287DD8D8F8E9
:100F000000008007F6D42078400769D574484FF078
:100F1000000838300068C0000BD4714838300168D0
:100F200041F08051016000684FF0010800F08050EE
:100F300000906E4E3068C00511D4306840F4807067
:100F40003060FFF761FD009006E000BFFFF75CFD39
:100F50000099401A022850D83068C005F6D5604E76
:100F6000A068683601280FD00528306810D020F01E
:100F700001003060306820F004003060A068B8B133
:100F8000FFF742FD00900FE0306840F00100F4E709
:100F900040F004003060F7E7FFF736FD0099411A92
:100FA00041F28830814264D830688007F4D50EE081
:100FB000FFF72AFD009007E0FFF726FD0099411A90
:100FC00041F28830814254D830688007F4D4B8F1B7
:100FD000000F05D042483830016821F0805101608F
:100FE000A069A8B3DBF80010C1F38101022947D042
:100FF0000228C9F860A005D000E03AE0FFF704FD40
:10100000044639E0FFF700FD064604E0FFF7FCFC6C
:10101000801B02282DD828688001F7D4F4E9070145
:101020000843E168324A490802EB0141A26841EAFB
:1010300082110843217C40EA0160217D40EA017071
:1010400038600120C9F86000FFF7DEFC044606E0C6
:1010500044E000BFFFF7D8FC001B022809D828682D
:101060008001F7D53AE000BFFFF7CEFC001B022855
:1010700002D90320BDE8F88F28688001F4D42DE060
:101080000128F7D03868E26900F48001914223D149
:10109000226A00F03F0191421ED147F6C071626A98
:1010A0000140B1EB821F17D1A26A4FF0FF3300F469
:1010B000403103EB5202B1EB024F0DD194F82C20DA
:1010C00000F07061B1EB026F06D194F8301000F0BF
:1010D000E040B0EB017F01D00120CBE70020C9E761
:1010E0000838024000004742800E4742007000402E
:1010F0000000FFFF10B5401EB0F1807F01D301203A
:1011000010BD4FF0E02460610F21601700F095FCE6
:101110000020A06107202061002010BD70477047AB
:10112000F8B5016804460868CA684B6910F00F0FEB
:101130004FF0000559D003F0010602F490773743D1
:1011400065D0C10705D0D10503D5616C41F001011F
:101150006164410705D5D90703D0616C41F00201F4
:101160006164810705D5D90703D0616C41F00401A2
:101170006164010707D502F02001314303D0616C9F
:1011800041F008016164616C00293AD0800604D501
:10119000900602D5204600F00DFB20684069616C86
:1011A000C0F38010090700D460B3204600F0DBFADA
:1011B00020684069400621D52068143050E8001F9F
:1011C00021F0400140E80012002AF5D1E06BA8B1FF
:1011D00072490165E06BFFF7E9FA002811D0E06B76
:1011E000016D01B0BDE8F040084783060FD59306B6
:1011F0000DD52046BDE8F84000F0DCBA2046FFF7E8
:101200008EFFF8BD2046FFF78AFF6564F8BD266BA8
:101210002023012E7ED1C6067CD5D6067AD5086855
:101220004868009048694FF0020640064DD5E26BD1
:10123000106840684FF480770004000C3AD0A18D0C
:10124000814237D9E085D069B8422DD020680C3072
:1012500050E8001F21F4807140E80012002AF5D107
:101260002068143050E8001F21F0010140E800120E
:10127000002AF5D12068143050E8001F21F0400109
:1012800040E80012002AF5D184F842302563206836
:101290000C3050E8001F21F0100140E80012002A35
:1012A000F5D1E06BFFF739FA6663A08DE18D401A46
:1012B00081B206E0A18D8142A8D1D069B842A5D102
:1012C00066632046FFF72AFFF8BDA08DE18D401A26
:1012D00081B2E08D0028F7D00029F5D020680C30CD
:1012E00050E8002F22F4907240E80027002FF5D13B
:1012F0002068143050E8002F22F0010240E8002757
:10130000002FF5D184F84230256320680C3050E876
:10131000002F00E006E022F0100240E80023002B3E
:10132000F3D1CDE705062BD5150629D594F8410054
:101330002128C9D1A068B0F5805F01D12069B0B182
:10134000206A411C2162216800784860E08C401EC0
:101350000004000CE084B7D12068C16821F080014E
:10136000C1602068C16841F04001C160F8BD206AD9
:101370000088C0F308004860206A801C2062E5E70E
:101380004006F3D55006F1D5CA68204622F0400247
:10139000CA6084F8413000F0FDF8F8BD5917000824
:1013A00070B5040004D094F84100002510B106E0A7
:1013B000012070BD84F84050204600F023F824201E
:1013C00084F841002068C16821F40051C1602046C2
:1013D00000F052FA2068016921F49041016120680F
:1013E000416921F02A0141612068C16841F400513E
:1013F000C1606564202084F8410084F84200656380
:10140000002070BD10B586B0044614216846FFF771
:10141000C6F817492068884228D11648002102687A
:1014200042F400320260006800F400300590114878
:101430001038026842F001020260006800F001000A
:1014400005900C2000900220CDE9010103200390BB
:101450000720049069460848FFF7DAF900220121C5
:101460002620FFF743FB2620FFF732FB06B010BD16
:1014700000440040403802400000024090F84230F2
:10148000202B01D00220704721B11AB10023036341
:1014900000F078BA0120704710B514491448FFF7DE
:1014A00025F821211248FEF7D4FFB0B100201049E1
:1014B000044640310C54401C4028FBDB0C4901F130
:1014C0004000FEF7D0FF09490120491E0870084975
:1014D00000200C54401C4028FBDB05480122BDE8DD
:1014E000104002494838FFF7C9BF00000100002042
:1014F000E40000202DE9F843044690F841009846A6
:1015000016460D46202802D00220BDE8F88385B19A
:101510007EB100206064212084F84100FFF774FA56
:10152000A6848146E684A0682027B0F5805F02D0BB
:1015300003E00120E9E7206910B12E4600250EE006
:1015400000260CE08021204600F037FAA8B9C6B189
:1015500016F8010B21684860E08C401EE084E08CA6
:101560004B464FF00002CDF800800028EAD14FF042
:101570004001204600F021FA40B184F84170032078
:10158000C3E735F8020BC0F30800E3E784F84170C5
:101590000020BAE77047FEE730B587B014216846EF
:1015A000FEF7FDFF1F480024016841F004010160BF
:1015B000016801F004010591016841F080010160BA
:1015C000016801F080010591016841F001010160AD
:1015D0000068154D00F001000590002220212846EA
:1015E000FFF70CFA4FF4005000904FF48810CDE94B
:1015F000010469460D48FFF70BF9202000900120F7
:10160000CDE90104694628460394FFF701F9002259
:1016100002212820FFF76AFA2820FFF759FA07B0BD
:1016200030BD000030380240000002400008024097
:10163000FEE7FEE7084C41F2883520212046FFF7FF
:10164000D5F96423082205A10748FFF753FF284670
:1016500000F042FAF1E700000000024044656661D4
:10166000756C7421000000009C000020094C0025CE
:10167000207848B10848FEF71AFF074982B2642370
:10168000A1F18800FFF736FF2570642000F024FAEE
:10169000EEE70000000000202401002010B5FFF755
:1016A000B9F901F049FC012803D0BDE8104001F070
:1016B00077B910BD30B593B034216846FEF76FFF9F
:1016C00014210DA8FEF76BFF1D480025016841F0AD
:1016D00080510160006800F0805012901948016844
:1016E00021F4404141F4804101600068022400F48B
:1016F0004040129001200390102004900094069422
:101700000820CDE907504820CDE909040B9468462C
:101710000C94FFF723FB08B172B6FEE70DA90F206A
:1017200081E831004FF48050CDE9100502210DA869
:10173000FFF70EFA002801D072B6FEE713B030BDF5
:1017400040380240007000400248016841F47001D6
:101750000160704788ED00E010B5806B0021C18505
:10176000FFF7DDFC10BD01680C3151E8002F22F4B9
:10177000907241E80023002BF5D10168143151E843
:10178000002F22F0010241E80023002BF5D1016B6C
:10179000012909D101680C3151E8002F22F0100213
:1017A00041E80023002BF5D1202180F842100021D0
:1017B0000163704708B590F84210222901D0022039
:1017C00008BD82684FF480539A4201D1016921B16A
:1017D000816A9A421BD04AB10AE00268816A526863
:1017E000C2F308020A80816A891C08E0026972B1AA
:1017F0000268526802F07F020A70816A491C8162A5
:10180000C18D491E0904090CC18503D01BE0026883
:101810005268F1E70168CA6822F02002CA600168D4
:10182000CA6822F48072CA6001684A6922F0010223
:101830004A61202180F8421000214163026B012A95
:1018400003D0FFF729FE002008BD016301680C31B9
:1018500051E8002F22F0100241E80023002BF5D1BF
:1018600001680A68D20602D50A6849680091818D2C
:10187000FFF754FCE7E7000070B504460068016913
:10188000E26821F44051114301612169A068E269D5
:1018900008436169114308432168CA6849F20C632F
:1018A0009A430243CA6020684169A26921F44071E9
:1018B0001143416131492068884202D03049884251
:1018C00002D1FFF7EFF901E0FFF7DCF9E26900234D
:1018D000192164253226B2F5004F626828D0A0FB9A
:1018E0000101930F9200FEF73DFD0146B0FBF5F0BC
:1018F0006FF01802504301EB800006EB0010B0FBC4
:10190000F5F000F0F002B1FBF5F002EB0012B1FBD4
:10191000F5F06FF01803584301EB800006EB001060
:10192000B0FBF5F000F00F0021681044886070BD36
:10193000A0FB010192185B41FEF714FD0146B0FBCC
:10194000F5F00201B1FBF5F06FF01803584301EB1D
:10195000800006EBC000B0FBF5F000F0F80002EBF1
:101960004002B1FBF5F0584301EB800006EBC000EC
:10197000B0FBF5F000F00700D6E7000000100140D2
:101980000014014081628285C285002141642221C8
:1019900080F84210016921B10168CA6842F480727E
:1019A000CA6001684A6942F001024A610068C16880
:1019B00041F02001C160002070472DE9F8439846AE
:1019C00017460D460446089E24E0701C22D0FFF7FF
:1019D0001BF8A0EB0800B0421AD8CEB12068C1684D
:1019E000490717D5802D15D0402D13D00168C94364
:1019F00009070FD401680025406800902046FFF7D2
:101A0000B2FE0820606484F840500120BDE8F883ED
:101A10000320FBE72068006835EA000004D00020BE
:101A2000B842D2D00020F1E70120F9E70148FFF7E2
:101A300077BB00009C000020FEE70907090E002884
:101A400004DB00F1E02080F80014704700F00F0084
:101A500000F1E02080F8141D70470000FEF7E2FF5F
:101A6000FFF728FEFFF798FD164815490C22016084
:101A70004FF41651416000218160C160C0E9041239
:101A80008161C161FFF78CFC08B172B6FEE70122EB
:101A90000D490C48FFF7F2FC00F02CF80B4A00212E
:101AA0000B4800F055F8084C084A641E2432606068
:101AB0000021084800F04CF8A06000F02DF8FEE787
:101AC000004400409C00002001000020B0320008CB
:101AD000351600086D16000810B5EFF3058111B139
:101AE0006FF0050403E0002408B100F0F9FD204682
:101AF00010BD0000EFF3058010B16FF005007047D6
:101B00000448016811B14FF0FF30704701210160B6
:101B1000002070476C00002010B5EFF3058010B175
:101B20006FF0050010BD08480168012902D04FF090
:101B3000FF3010BD054A002182F8141D022101600A
:101B400000F036FE002010BD6C0000200BE000E02D
:101B50002DE9FF414FEA01034FF00005EFF3058146
:101B6000039549BB40B38027182100244AB3166867
:101B700006B1344696691EB13146761E382E02D221
:101B80001679F60703D0002004B0BDE8F08156694D
:101B900006B1B708D2F808C0BCF1000F0DD0D56867
:101BA0005C2D18D312693AB136B18DE806103A4669
:101BB000214601F096F903900DE0D6685EB91269EE
:101BC0004AB903AACDE90012BAB2214601F05CF984
:101BD000012800D003950398D6E700002DE9F041D5
:101BE000134C0F460546E6682068001D00F044FCD3
:101BF000681C07D137B12168BDE8F0410D48091DC7
:101C000000F08ABC20683544B5424560216805D2A1
:101C1000A06BBDE8F041091D00F066BC606B091DBA
:101C200000F062FCA06A854200D2A562BDE8F081A6
:101C30001C000020540600202DE9F041054600F06C
:101C400077FC2D4CA068401CA06020682B4F10B181
:101C5000606930B32BE02560A068012827D10026F9
:101C600006EB860007EB800000F030FC761C382E77
:101C7000F6D3234800F02AFC2148143000F026FC5B
:101C80001F48283000F022FC1D483C3000F01EFCAC
:101C90001B48503000F01AFC194860631430A063F0
:101CA00005E02068E96AC06A884200D82560606A59
:101CB000401C60626864E86A2169884200D920613A
:101CC00000EB800007EB8000291D00F025FC00F0F0
:101CD0004FFC606900280CD02068E96AC06A88421D
:101CE00007D208494FF080500860BFF34F8FBFF311
:101CF0006F8FBDE8F08100001C000020A4010020CF
:101D00000406002004ED00E038B500F011FC104C92
:101D10002068C8B90F4800F0D9FB0E48143000F015
:101D2000D5FB0C48E060143020610A4B0020F03BEA
:101D3000009003F1500210210A2000F047FE2060BD
:101D400010B105A100F096FCBDE8384000F010BCD1
:101D50005800002058070020546D72510000000008
:101D600030B4026C0B46002A0BD0C1681144C1602C
:101D70008468A14201D30168C16030BC1846FEF7F7
:101D8000C1BB30BC70472DE9F041856B1746044656
:101D90000026026C82B1C7B1E068FEF7B3FBE168D0
:101DA000206C091AE1602268914202D2A168081AE7
:101DB000E060022F16D017E02068A8B9A06801F0F3
:101DC00033F906460020A0600EE06068FEF79AFB3B
:101DD000216C606808446060A168884204D3206870
:101DE000606001E005B16D1E6D1CA5633046BDE865
:101DF000F08110B5044690F8590058B101280CD074
:101E000002280FD0502080F31188BFF34F8FBFF30B
:101E10006F8FFEE7206B00F0BFFB2046BDE810404F
:101E200000F0BABB10BD000010484FF470514207DB
:101E300006D0C01D0D4920F00700411AC1F57051B0
:101E40000B4A00230144C2E900030839183A21F083
:101E5000070111604B600B600B1AC0E9001393601F
:101E60004FF000405360506170470000380E002072
:101E700088000020144E154CA6F29C474FF0805865
:101E8000DFF84C9012E000BF00F052FBF068C5682C
:101E9000281D00F0F1FAA068401EA0606068401E96
:101EA000606000F065FB2846FFF7A3FF606800282C
:101EB000EAD138680128F9D9C9F80080BFF34F8FFB
:101EC000BFF36F8FF2E70000400600201C000020E7
:101ED00004ED00E070B51D46049C51B1C4F800202B
:101EE000C4E90F010121204600F0A4FD84F84C5004
:101EF00070BD2460F4E700002DE9F05F8846DDE95D
:101F00000B941546834691009A460A9EA522206BA3
:101F1000FEF73DFB6FF00301206B01EB85010844E8
:101F200020F00707780707D0502080F31188BFF30F
:101F30004F8FBFF36F8FFEE70025B8F1000F0FD072
:101F40005FF00000221818F8001082F8341018F81A
:101F5000001011B1401C1028F4D384F8435001E064
:101F600084F83450382E00D33726E662C4E913656E
:101F7000201D00F0B6FA04F1180000F0B2FA246156
:101F8000C6F138006462A061656584F85850524615
:101F90005946384600F05AFA2060B9F1000F01D0D6
:101FA000C9F80040BDE8F09F30B5114900E0114686
:101FB0000A688242FBD34B685C18844203D14068B4
:101FC00018444860084643681C18944209D1084CDC
:101FD000183C2468A24209D052681A4442600A6838
:101FE00012680260814200D0086030BD0460F9E7E9
:101FF0008800002070B5002441600B4D00619142C3
:1020000006D8D11A8269914206D2011D286907E0DB
:102010009A4203D2994201D3012403E0011DE868EA
:1020200000F062FA204670BD5800002010B504464A
:1020300000F07EFAA06B28B15FF0000400F098FA7F
:10204000204610BD0124F9E730B589B03C4D6EE063
:102050000498002806DADDE90601059A90470498FD
:10206000002864DB069C606910B1201D00F004FAB2
:1020700003A800F0D7F8024604980A2857D2DFE8F0
:1020800000F00505052D334A05052D3394F8280089
:1020900040F0010084F828000599A069059B0144DF
:1020A0002046FFF7A7FF68B3216A2046884794F8C7
:1020B000280040073BD5002000900598A169002327
:1020C00042181946204601F0B9F8D8B9502080F3DB
:1020D0001188BFF34F8FBFF36F8FFEE714F8280FFF
:1020E00020F00100207022E094F8280040F0010068
:1020F00084F828000598A06128B18118134620466D
:10210000FFF778FF13E0502080F31188BFF34F8F63
:10211000BFF36F8FFEE794F82800810703D42046B1
:1021200000F03AFA03E020F0010084F828000022D1
:1021300004A9286800F0D2FD002889D109B030BD7B
:10214000580000202DE9FC410F46054600F074FBC5
:1021500001A800F067F80446019818B100F0DCFF10
:10216000BDE8FC81254EAFB130690068D0B30027CF
:10217000291B3A46306800F091FA00F0CDFF0028A4
:10218000EED11F494FF080500860BFF34F8FBFF36F
:102190006F8FE5E7A542EBD800F0BEFFF068274659
:1021A000C068C468201D00F067F994F82800410752
:1021B00019D5A0692B4641193A462046FFF71AFF68
:1021C000A8B100200346014600902A46204601F0AF
:1021D00035F860B9502080F31188BFF34F8FBFF3FB
:1021E0006F8FFEE707E020F0010084F82800216AE5
:1021F00020468847B4E70127BAE7000058000020CE
:1022000004ED00E00648416B096829B1416BC968DB
:10221000C9684968816270474FF0FF31FAE70000F2
:102220001C00002070B5054600F094FE064E0446E2
:10223000B068844203D200F009F8012000E00020D9
:1022400028602046B46070BD58000020F8B5194DD4
:1022500020E0C068C4680668201D00F00DF9216AFE
:102260002046884794F82800400713D5A0693044D9
:10227000B04206D924616060211DE86800F034F99D
:1022800008E000200346014600903246204600F058
:10229000D5FF38B1E86801680029DAD12969C5E9B4
:1022A0000310F8BD502080F31188BFF34F8FBFF3A8
:1022B0006F8FFEE75800002008484068401C4FF030
:1022C000500080F3118804D0BFF34F8FBFF36F8F9E
:1022D000FEE7BFF34F8FBFF36F8FFEE79000002044
:1022E000074CE068016841B1C0680021D0F80000E7
:1022F000FFF728FFFFF7A8FEF3E701210020F7E72B
:10230000580000202DE9F041044600F011F994F93D
:10231000455004F1240609E0606A48B1304600F0F7
:10232000C3FE08B100F00AFA6D1E6DB2002DF3DC99
:102330004FF0FF3684F8456000F01AF900F0F8F825
:1023400094F9445004F1100709E0206948B1384677
:1023500000F0AAFE08B100F0F1F96D1E6DB2002D7B
:10236000F3DC84F84460BDE8F04100F001B90000FE
:102370002DE9F0410546002700F05EFA324E306844
:1023800008B9FFF751FD706905424ED1C5B3083554
:1023900068070ED005F00700C0F108000544680783
:1023A00007D0502080F31188BFF34F8FBFF36F8F9A
:1023B000FEE72DB37068854237D8234818300146B0
:1023C0000C6801E020460C466168A94202D22168EF
:1023D0000029F7D131688C4227D007682168016055
:1023E00060680837411B10290FD96019420708D0CF
:1023F000502080F31188BFF34F8FBFF36F8FFEE73C
:1024000013E041606560FFF7CFFD61687068401AB6
:102410007060B268904200D2B060706901430020E1
:10242000C4E90001F068401CF06000F075FE780718
:1024300007D0502080F31188BFF34F8FBFF36F8F09
:10244000FEE73846BDE8F0817000002010B5031F9C
:102450004FF080741C601B1F21F001011960191FCF
:10246000044B0B6014390A60091F6FF002024438F4
:102470000A6010BDB9220008D0E9013201699A60F2
:10248000D0E901235A604A68824201D182684A60D9
:10249000002202610868401E08600868704700005A
:1024A000034B036003F15C000860802010607047FC
:1024B00080070020044B036003F15C0008604FF4C8
:1024C0008070106070470000DC09002000F10801F6
:1024D0004FF0FF32C0E90112C160016100210160CB
:1024E000704700210161704730B50B685A1C02D05B
:1024F00000F1080202E0026904E0224654682568FF
:102500009D42FAD953684B6099608A6051600861B6
:102510000168491C016030BD42684A6093688B6065
:1025200093685960916008610168491C01607047B7
:10253000502080F31188BFF34F8FBFF36F8F0A498C
:102540004868401C486001280CD10848006810F019
:10255000FF0F07D0502080F31188BFF34F8FBFF3D8
:102560006F8FFEE7704700009000002004ED00E050
:102570000849486828B1401E486001D180F311889D
:102580007047502080F31188BFF34F8FBFF36F8FD8
:10259000FEE700009000002070B500282AD0164DFC
:1025A000A0F1080460686969084207D1502080F3EF
:1025B0001188BFF34F8FBFF36F8FFEE722683AB1E8
:1025C000502080F31188BFF34F8FBFF36F8FFEE76A
:1025D0008843606000F030F96068696808446860AA
:1025E0002046FFF7E1FC2869401C2861BDE87040E7
:1025F00000F092BD70BD0000700000204FF0E020A0
:1026000000210161816105494FF47A720968B1FBCB
:10261000F2F1491E41610721016170471800002055
:1026200010B5FDF77BFE114910280ED300F1E02014
:1026300090F8F0030A78904207D2502080F3118876
:10264000BFF34F8FBFF36F8FFEE7094800688968BB
:1026500000F4E060884207D9502080F31188BFF36E
:102660004F8FBFF36F8FFEE710BD0000900000207A
:102670000CED00E010B5084B002200BF53F83240CB
:102680001CB1521C082AF9D310BD43F8321003EBD9
:10269000C201486010BD00006401002070B51546FD
:1026A0000E460446FFF744FF94F944100020491CED
:1026B00001D184F8440094F94510491C01D184F8F3
:1026C0004500FFF755FFA06B28B92A46314604F1B3
:1026D000240000F051F82046BDE87040FFF712BE1C
:1026E00010B5020014D00F48006B38B1502080F3B1
:1026F0001188BFF34F8FBFF36F8FFEE700F09CF898
:1027000000211046FFF76AFA00F006FD002807D105
:1027100005494FF080500860BFF34F8FBFF36F8FB4
:1027200010BD00001C00002004ED00E002490A6A10
:102730000260C968416070471C0000200149012007
:10274000C86170471C00002010B50C4650B1094903
:1027500009681831FFF7C8FE2046BDE81040012186
:10276000FFF73CBA502080F31188BFF34F8FBFF3BF
:102770006F8FFEE71C00002070B514460D4668B14F
:102780000A4909681831FFF7C7FE0CB14FF0FF3551
:1027900021462846BDE87040FFF720BA502080F35C
:1027A0001188BFF34F8FBFF36F8FFEE71C0000202F
:1027B00030B587B00024039405AA04A903A80494A3
:1027C000FFF76EFEDDE903010094CDE9011000235F
:1027D00015A11748059A00F084FB164D0028E86201
:1027E0001FD000F0FBFC012809D0401C19D150205B
:1027F00080F31188BFF34F8FBFF36F8FFEE7502038
:1028000080F31188BFF34F8FBFF36F8F4FF0FF300E
:10281000A86201206861EC6007B0BDE8304000F0BC
:1028200045B807B030BD000049444C4500000000E9
:10283000751E00081C0000200248016B491C016342
:10284000704700001C000020164810B5016B11B144
:102850000121C16110BD0021C1610169124A01E07D
:10286000B9B1491E01EB810352F82330002BF7D098
:1028700001EB810302EB830202F1080453685B68F9
:102880005360A34201D15B685360DA680260016162
:1028900010BD502080F31188BFF34F8FBFF36F8FAF
:1028A000FEE700001C000020A40100201CB53748F2
:1028B0000168374A914207D1502080F31188BFF355
:1028C0004F8FBFF36F8FFEE700683149491E884282
:1028D00007D1502080F31188BFF34F8FBFF36F8F64
:1028E000FEE72C4908780190FF20087008788DF8E1
:1028F00000009DF800009DF8002000F0F0009042DC
:1029000007D0502080F31188BFF34F8FBFF36F8F34
:10291000FEE79DF80000204C00F0500020700720DA
:10292000A06005E09DF8002052008DF80020401EB8
:102930009DF800201206F5D4A060032807D050208F
:1029400080F31188BFF34F8FBFF36F8FFEE74FF413
:102950004070A060019808700C482030016841F474
:1029600070010160016841F070410160FFF746FEAF
:1029700000206060FDF79AFC0848016841F0404182
:102980000160FDF77FFC00201CBD000000ED00E0B1
:1029900071C20F4100E400E09000002034EF00E03D
:1029A00010B5502080F31188BFF34F8FBFF36F8FA6
:1029B00000F0D6FA18B104494FF0805008600020AA
:1029C00080F3118810BD000004ED00E038B5049DCF
:1029D00018B153B1CAB181B120E0502080F3118801
:1029E000BFF34F8FBFF36F8FFEE7502080F3118846
:1029F000BFF34F8FBFF36F8FFEE7502080F3118836
:102A0000BFF34F8FBFF36F8FFEE739B1502080F3D4
:102A10001188BFF34F8FBFF36F8FFEE750241C4622
:102A2000012384F846302B460094FFF753FA2046E2
:102A300038BD000070B50D46040025D0FFF778FDC5
:102A4000D4E90F20216802FB0011A1600021A163DD
:102A5000216861600A46D4E90F01401E00FB012194
:102A6000E16021464FF0FF3001F8440F487004F157
:102A700010008DB1FFF72AFD04F12400FFF726FDB9
:102A8000FFF776FD012070BD502080F31188BFF361
:102A90004F8FBFF36F8FFEE721690029F0D000F060
:102AA00003FB0028ECD004494FF080500860BFF3CE
:102AB0004F8FBFF36F8FE3E704ED00E02DE9FF4791
:102AC00082B01D468A464FF00008040003D0BAF1D8
:102AD000000F08D011E0502080F31188BFF34F8F12
:102AE000BFF36F8FFEE7206C38B1502080F3118860
:102AF000BFF34F8FBFF36F8FFEE7022D0AD1E06B5C
:102B0000012807D0502080F31188BFF34F8FBFF307
:102B10006F8FFEE700F010FA3F4F4FF000094FF0C3
:102B2000805648B9049838B1502080F31188BFF31B
:102B30004F8FBFF36F8FFEE7FFF7FAFCA06BE16BDF
:102B4000884207D3022D05D00498D0B1B8F1000F08
:102B50001AD01EE02A4651462046FFF714F9616A52
:102B600019B104F1240000F09FFA20B13E60BFF3D8
:102B70004F8FBFF36F8FFFF7FBFC012006B0BDE85E
:102B8000F087FFF7F5FC22E06846FFF7CFFD4FF036
:102B90000108FFF7EDFCFFF74FFEFFF7C9FC94F9C2
:102BA0004400401C01D184F8449094F94500401C35
:102BB00001D184F84590FFF7DBFC04A9684600F0DA
:102BC00029F930B12046FFF79DFB00F0A5FA00205F
:102BD000D4E7FFF7ADFCA06BE16B884213D1FFF7A0
:102BE000C7FC04F110000499FFF7AEFD2046FFF783
:102BF00089FB00F091FA00289ED13E60BFF34F8F11
:102C0000BFF36F8F98E7FFF7B3FC2046FFF77AFB1F
:102C100000F082FA90E7000004ED00E02DE9F047B3
:102C20001F4690468946040003D0B9F1000F08D032
:102C300011E0502080F31188BFF34F8FBFF36F8FE7
:102C4000FEE7206C38B1502080F31188BFF34F8F1E
:102C5000BFF36F8FFEE7022F0AD1E06B012807D088
:102C6000502080F31188BFF34F8FBFF36F8FFEE7C3
:102C7000FFF7D6FC5020EFF3118680F31188BFF3E5
:102C80004F8FBFF36F8FA06BE16B884206D3022F8B
:102C900004D0002086F31188BDE8F08794F94550F0
:102CA000A06B3A4649462046FFF76DF8681C04D0F1
:102CB0006D1C84F845500120ECE7606A0028FAD0CA
:102CC00004F1240000F0F0F90028F4D0B8F1000F6E
:102CD000F1D00121C8F80010EDE700002DE9F74719
:102CE000002683B08A46040003D0BAF1000F08D052
:102CF00011E0502080F31188BFF34F8FBFF36F8F27
:102D0000FEE7206C38B1502080F31188BFF34F8F5D
:102D1000BFF36F8FFEE700F00FF9DFF8F4804FF09C
:102D200000094FF0805748B9059838B1502080F31A
:102D30001188BFF34F8FBFF36F8FFEE7FFF7F8FBEC
:102D4000A56BC5B151462046FFF70AF86D1EA56375
:102D5000206950B104F1100000F0A6F928B1C8F8BC
:102D60000070BFF34F8FBFF36F8FFFF701FC01209F
:102D700006B0BDE8F087059808B11EB106E0FFF780
:102D8000F7FB27E06846FFF7D1FC0126FFF7F0FBD1
:102D9000FFF752FDFFF7CCFB94F94400401C01D132
:102DA00084F8449094F94500401C01D184F8459082
:102DB000FFF7DEFB05A9684600F02CF80028204646
:102DC0000AD0FFF79FFA00F0A7F92046FFF72EF987
:102DD0000028B3D00020CBE7FFF728F990B104F129
:102DE00024000599FFF7B0FC2046FFF78BFA00F0AE
:102DF00093F90028A2D1C8F80070BFF34F8FBFF33A
:102E00006F8F9BE72046FFF77DFA00F085F995E785
:102E100004ED00E02DE9F0410C46050011D0C4B1ED
:102E2000FFF786FB174BDA686E682068911B471C1A
:102E300017D02F681B6A9F4219D0964217D80124D9
:102E400010E0502080F31188BFF34F8FBFF36F8FD6
:102E5000FEE7502080F31188BFF34F8FBFF36F8FD1
:102E6000FEE70024FFF784FB2046BDE8F08188429E
:102E700005D9401A20602846FFF758FCF1E70020EA
:102E80002060DCE71C0000202DE9FF5F8346DDE9C0
:102E90000E87994616468A469000FFF769FA0500A4
:102EA0001CD05C20FFF764FA040014D000202563D6
:102EB00084F85900CDE90240CDE900874B463246FF
:102EC00051465846FFF718F82046FEF7B5FE012098
:102ED00004B0BDE8F09F2846FFF75EFB4FF0FF30DF
:102EE000F6E7F0B585B0DDE90B640A9DA6B1DCB16B
:102EF0005C2700972663022684F85960002604AFF9
:102F0000CDE90246CDE90057FEF7F6FF2046FEF771
:102F100093FE049805B0F0BD502080F31188BFF3F4
:102F20004F8FBFF36F8FFEE7502080F31188BFF300
:102F30004F8FBFF36F8FFEE70548416919B1006BF2
:102F400018B1002070470120704702207047000030
:102F50001C0000200148C068704700001C000020D1
:102F60002DE9F0412E4C0027206B28B1A069401CB0
:102F7000A0613846BDE8F081E668761CE66013D1B2
:102F8000606B006838B1502080F31188BFF34F8F19
:102F9000BFF36F8FFEE7606BA16B6163A063206A74
:102FA000401C2062FFF72EF9A06ADFF87880864285
:102FB00009D3606B0068A0B1606BC068C5686868C1
:102FC000864211D2A0622068C06A00EB800158F8E6
:102FD0002100012800D90127E0690028C9D0012774
:102FE000C7E74FF0FF30EDE7281DFFF745FAA86A65
:102FF00018B105F11800FFF73FFAE86A2169884225
:1030000000D9206100EB800108EB8100291DFFF74A
:1030100083FAE86A2168C96A8842CAD30127C8E7E7
:103020001C000020A401002070B504004FF0000136
:1030300033D01B4D2868844207D0502080F311887C
:10304000BFF34F8FBFF36F8FFEE7206D38B1401E87
:103050002065E36CE26A9A421FD040B11DE0502027
:1030600080F31188BFF34F8FBFF36F8FFEE7201DF2
:10307000FFF702FAE06CE062C0F13800A061E06A9C
:103080002969884200D92861064900EB800001EBDC
:103090008000211DFFF740FA0121084670BD0000A5
:1030A0001C000020A401002070B5C068C46854B1A1
:1030B00004F118000646FFF7DFF9144D286B50B1F4
:1030C0003146134815E0502080F31188BFF34F8F2D
:1030D000BFF36F8FFEE7201DFFF7CEF9E06A296985
:1030E000884200D928610B4900EB800001EB800089
:1030F000211DFFF711FAE06A2968C96A884202D9DE
:103100000120E86170BD002070BD00001C0000209F
:103110002C060020A40100202DE9F0472C4D0024AE
:103120002746286B38B1FFF703FA286B401E286347
:10313000286B40B146E0502080F31188BFF34F8FD9
:10314000BFF36F8FFEE7A968224E0120D1B3A6F529
:10315000916980463068E0B1F068C46804F11800F5
:10316000FFF78AF9201DFFF787F9E06A296988428D
:1031700000D9286100EB800109EB8100211DFFF7D8
:10318000CBF9E06A2968C96A8842E3D3C5F81C8094
:10319000E0E70CB1FFF736F8AC694CB14FEA08062E
:1031A000FFF7DEFE00B1EE61641EF9D10020A861D8
:1031B000E86938B10849012738070860BFF34F8F25
:1031C000BFF36F8FFFF7D4F93846BDE8F0870000F2
:1031D0001C0000202C06002004ED00E010B586B095
:1031E000FEF792FD114C2068B8B1002003900490C6
:1031F00005AA04A903A8FFF75DF9DDE90321022070
:103200008DE8070000230AA10B48059AFFF769FE25
:10321000606010B106B0012010BD502080F311880D
:10322000BFF34F8FBFF36F8FFEE700005800002001
:10323000546D722053766300E12200082DE9FF41AE
:103240001E46134602000A9D4FF0000016D0144C93
:103250002768002F0FD0CDE900130292062917DA54
:10326000FFF76AFE02284FF000030FD000226946E4
:103270002068FFF723FC04B0BDE8F081502080F304
:103280001188BFF34F8FBFF36F8FFEE72A46EEE73B
:103290000023324669463846FFF7C0FCEBE70000E2
:1032A000580000204FF04070E1EE100A7047000017
:1032B0001C330008000000000000000000000000B7
:1032C00000000000000200001800000000000000E4
:1032D00000000000103300080000000000000000A3
:1032E00000000000000000000002000008000000D4
:1032F00000000000000000000000000000000000CE
:10330000010203040607080900000000010203048B
:103310006D795461736B3032000000006465666142
:10332000756C745461736B00483300080000002012
:103330009C00000000020008E43300089C0000200C
:10334000FC4F00001C02000800000000000000000C
:10335000000000000100000010000000000000005C
:103360000024F40000000000000000000000000045
:10337000000000000000000000000000000000004D
:10338000000000000000000000000000000000003D
:10339000000000000000000000000000000000002D
:1033A000000000000000000000000000000000001D
:1033B000000000000000000000000000000000000D
:1033C00000000000000000000000000000000000FD
:1033D000000000000000000000000000AAAAAAAA45
:0433E00000000000E9
:04000005080001C529
:00000001FF
