:020000040800F2
:10000000D051002089030008872D0008EB2C000840
:10001000852D00083F1E000819330008000000006D
:100020000000000000000000000000009502000831
:10003000411E000800000000F10200087D2F0008AA
:10004000A3030008A3030008A3030008A3030008F8
:10005000A3030008A3030008A3030008A3030008E8
:10006000A3030008A3030008A3030008A3030008D8
:10007000A3030008A3030008A3030008A3030008C8
:10008000A3030008A3030008A3030008A3030008B8
:10009000A3030008A3030008A3030008A3030008A8
:1000A000A3030008A3030008A3030008A303000898
:1000B000A3030008A3030008A3030008A303000888
:1000C000A3030008A3030008A3030008A303000878
:1000D000A3030008A30300080D330008A3030008CE
:1000E000431E0008A3030008A3030008A30300089D
:1000F000A3030008A3030008A3030008A303000848
:10010000A3030008A3030008A3030008A303000837
:10011000A3030008A3030008A3030008A303000827
:10012000A3030008A3030008A3030008A303000817
:10013000A30300080000000000000000A303000863
:10014000A3030008A3030008A3030008A3030008F7
:10015000A3030008A3030008A3030008A3030008E7
:10016000A3030008A3030008A3030008A3030008D7
:10017000A3030008A3030008A30300080000000075
:1001800000000000A30300080000000000000000C1
:10019000A30300080000000000000000A303000803
:1001A000000000000000000000000000A3030008A1
:1001B000A3030008A3030008A3030008A303000887
:1001C000A303000800F002F800F054F80AA090E839
:1001D000000C82448344AAF10107DA4501D100F002
:1001E00049F8AFF2090EBAE80F0013F0010F18BF7B
:1001F000FB1A43F0010318476C5600008C560000B0
:10020000103A24BF78C878C1FAD8520724BF30C842
:1002100030C144BF04680C60704700000023002414
:1002200000250026103A28BF78C1FBD8520728BF06
:1002300030C148BF0B607047662905F08A82642987
:1002400000F04E81002070471FB505F078FA00F0ED
:10025000E4FA00F0EBFE04000020002104F088FD29
:10026000401C60600020002104F06CFDE0601FBDB8
:1002700010B510BD01F09CF91146FFF7E5FF03F042
:100280003DF901F0C3F903B4FFF7F2FF03BC01F03D
:1002900007FA00002C4B19680868B0E8F04F80F3AB
:1002A0000988BFF36F8F4FF0000080F3118870470B
:1002B0000000000008480068006880F308884FF0DC
:1002C000000080F3148862B661B6BFF34F8FBFF3AE
:1002D0006F8F00DF00BF00BF08ED00E0DFF80C000B
:1002E000016841F470010160704700BF88ED00E0D3
:1002F000EFF30980BFF36F8F134B1A681EF0100FD6
:1003000008BF20ED108A20E9F04F106009B44FF0CB
:10031000500080F31188BFF34F8FBFF36F8F03F04E
:10032000E3FF4FF0000080F3118809BC19680868EA
:10033000B0E8F04F1EF0100F08BFB0EC108A80F349
:100340000988BFF36F8F70471C000020EFF3058012
:10035000704700000B49D1F800C04A685CF8043BC4
:100360001068184442F8040B8C4528BFA1F1DC0C3E
:100370008A4228BFA1F1DC02C1F800C04A6020F027
:1003800000407047644B00200948804709480047F7
:10039000FEE7FEE7FEE7FEE7FEE7FEE7FEE7FEE735
:1003A000FEE7FEE704480549054A064B7047000092
:1003B00029300008C5010008D04B0020D051002092
:1003C000D04D0020D04D002053EA020C00F069808F
:1003D0002DE9F04B4FF00006002B1FBFB3FA83F559
:1003E00003FA05F424FA05F65E4012BF1643B2FA8A
:1003F00082F502FA05F4C5F120051EBF22FA05FCBC
:1004000044EA0C04203556EA044C4FEA144418BF61
:10041000641C4FF000084FF00009904271EB030C90
:1004200039D3002919BFB1FA81F701FA07F6B0FAFA
:1004300080F700FA07F6C7F120071EBF20FA07FC75
:1004400046EA0C062037B6FBF4FCA7EB0507103F85
:1004500007F01F0BCBF120060CFA0BFB2CFA06F66B
:1004600044BFB3460026202FA4BF5E464FF0000BCA
:100470005BEA060C08BF4FF0010B19EB0B09ABFB55
:10048000027C48EB0608C01B06FB02CC0BFB03CC2E
:1004900071EB0C01C1E70B46024641464846BDE8F8
:1004A000F08B13B54FF000004FF00001AFF3008068
:1004B000BDE81C40704700000FB41CB5074B06AAEE
:1004C0007B4469460090059800F0FFFC00206946D7
:1004D00000F00EFD1CBC5DF814FB00002D0A0000AE
:1004E0002DE9F0410646002410687529314616A50D
:1004F00010D0AFF30080002802DA404213A507E0D5
:1005000031688A0701D512A502E0490704D511A573
:10051000012401E0AFF3008000210A2206F1240744
:1005200009E0B0FBF2FCB0FBF2F302FB1C00303040
:1005300078541846491C0028F3D123462A463046F1
:10054000BDE8F04100F054BA000000002D000000AA
:100550002B000000200000002DE9F0474FF0000ABA
:1005600089460446C0F820A02046E1688847002854
:1005700076D0252806D0D4E901219047206A401C76
:100580002062F1E7E168204600258847C4F81CA0F6
:1005900006460027C4F818A02A2E09D0304602F0DB
:1005A000E4FE38B304EB8708303EC8F8186019E061
:1005B00059F8041B204604EB87029161E1688847E3
:1005C000012F064618D1E069002820DA25F0200521
:1005D0001DE0D8F8180000EB800006EB4000303832
:1005E000C8F818002046E1688847064602F0BDFEBC
:1005F0000028EED1012F0AD02E2E08D12046E16826
:1006000088477F1C0646022F45F02005C4DBA06901
:10061000002803DA404245F00105A061E80701D057
:1006200025F01005B6B1A6F14100192802D82036F0
:1006300045F400654A463146204625604D46FFF7A1
:10064000FBFD58B1012806D0ED1D25F0070000F193
:10065000080989E704E005F1040985E730468AE7DF
:10066000206ABDE8F08700000FB400B58DB010A976
:10067000099000910B904FF0FF300A9000200C90F1
:10068000064878440690064878446A4607900F99D1
:1006900009A800F047FC0DB05DF814FBBF0800008E
:1006A000D70800002DE9FF5F1D464FF0FF3B914644
:1006B0004FF000085F46D5E90146A96901987F1C03
:1006C0008847296A824688470028F6D1BAF1FF3F59
:1006D0000CD0002E24F4C06419DD600614D5BAF1E4
:1006E0002B0F09D0BAF12D0F0ED103E0584604B0FC
:1006F000BDE8F09F44F48064A96901987F1C884795
:10070000761E8246002E02DDBAF1300F03D0B9F119
:10071000000F26D032E0A969761E01987F1C44F4B0
:1007200000748847002E824605DDBAF1780F06D0A6
:10073000BAF1580F03D0B9F1000F10D01EE0B9F193
:10074000000F02D0B9F1100F18D1A969761E0198D7
:100750007F1C24F4007488478246102002E00820A1
:1007600000E00A20814609E0A96908FB0908761E15
:1007700001987F1C44F4007488478246002E05DDF2
:100780004946504600F0B9FB0028EDDAE9690198C6
:100790008847A00502D46FF00100A8E7E00725D143
:1007A000600613D5600502D5C8F1000000E04046A0
:1007B00029680A1D2A600968220501D5087015E01C
:1007C000220701D5088011E008600FE02868011DAC
:1007D00029600068210502D580F8008006E0210725
:1007E00002D5A0F8008001E0C0F8008038467EE71E
:1007F0000B4910B5A1F17C020A4CC2E9371237212E
:1008000006E000EB104342F82130074B00FB0340A9
:100810000B1EA1F10101F4DC10BD0120E8E700008E
:10082000044B0020E119D666CD0D0100401ECAB26E
:1008300010F8011F8A4202D00029F9D10020704728
:1008400030B505460B462A4613F8014B12F8010B4A
:1008500008B1A042F8D01CB1002802D06D1CF1E70D
:10086000284630BD40EA0103024630B59B0710D14F
:100870004FF0013400E008C208C91D1B9D4315EA72
:10088000C41FF8D013F0FF0102F8011B0DD01B0AA2
:10089000F8E711F8013B002B02F8013B05D011F8F5
:1008A000013B002B02F8013BF3D130BD10B5431CD6
:1008B00002E010F8011B71B18107FAD14FF001324B
:1008C00002C88C1A8C4314EAC211F9D0C01A0A0665
:1008D00003D0C01E10BDC01A10BD0A0401D0801E76
:1008E00010BD0902FCD0401E10BD421E12F8013F8F
:1008F000002BFBD111F8013B002B02F8013BF9D191
:100900007047032A40F2308010F0030C00F015808D
:1009100011F8013BBCF1020F624498BF11F801CB02
:1009200000F8013B38BF11F8013BA2F1040298BF67
:1009300000F801CB38BF00F8013B11F0030300F0D1
:100940002183083AC0F0088051F8043B083A51F876
:1009500004CBA0E80810F5E7121D5CBF51F8043B7A
:1009600040F8043BAFF30080D20724BF11F8013BED
:1009700011F801CB48BF11F8012B24BF00F8013B4F
:1009800000F801CB48BF00F8012B704702F0FF03CD
:1009900043EA032242EA024200F028BB4FF0000281
:1009A00000B5134694469646203922BFA0E80C5065
:1009B000A0E80C50B1F12001BFF4F7AF090728BF40
:1009C000A0E80C5048BF0CC05DF804EB890028BFBC
:1009D00040F8042B08BF704748BF20F8022B11F0E5
:1009E000804F18BF00F8012B704770477047704761
:1009F0002DE9F0470D4699469246044600F1240839
:100A00000168880604D5E06921F01001216000E04A
:100A10000120A84201DD471B00E00027A1697A19E7
:100A200002EB0900081AA0612078C00602D4204613
:100A3000AFF30080002608E0D4E901211AF806008F
:100A40009047206A401C761C20624E45F4DB2078DB
:100A5000C0060AD52046AFF3008006E0D4E90121A4
:100A600030209047206A401C2062381EA7F1010701
:100A7000F4DC07E0D4E9012118F805009047206A6A
:100A8000401C2062281EA5F10105F3DC2046AFF3CF
:100A900000802078000602D50220BDE8F087012002
:100AA000FBE770472DE9FF4F0C461E464FF0FF371E
:100AB0008BB0D2E90001DDF860800A908A46C1F36C
:100AC0000A5505B93D46002108464FF00000BAF12D
:100AD000000F00F4400005DA00EB80004FF4400105
:100AE00001EA50004FEA9059B9F1010F00DDB94613
:100AF0000A9850EA4A000ED044F61050A5F2FF358D
:100B000045432F14B8F1000F1ED07542291E1EDD7B
:100B1000C9F100021CE0B8F1010F4FF0000001D054
:100B2000302103E0F24305E02154401CB042FBDBDE
:100B300030460022002121540B99C1F80880C1E9F8
:100B400000200FB0BDE8F08FBD1B6D1CDEE74A46EC
:100B500000DA694206A800F0B5FC06AB93E807008E
:100B600003AB83E8070050460A9900F0A0FD8DE82A
:100B70000700A0F500501F3800900398002D0ADDF3
:100B800042F21F014A460844002303A90390684625
:100B900001F009F809E0A0F500504A461F3800238B
:100BA00003A90390684601F013F88DE807000004DC
:100BB000000C03D04FF0FF30410800E01046B8F1C0
:100BC000000F03D00022009215461EE0751E05D4CA
:100BD00000F030FA303262556D1EF9D5B34601226D
:100BE000084302D000227F1C04E02078302801D185
:100BF00000227F1E002A099784D01DE0112D07DAFC
:100C000000F018FA303262556D1C50EA0102F5D13D
:100C1000084302D00098C8B10EE00021681E05E02C
:100C2000235C625C63542254401E491C8142F7DB02
:100C3000AB46A81B401E0990002004F80B000B983F
:100C4000099AC0F80880C0E9002B7AE711264FF016
:100C5000000857E72DE9F04F88460446D21D22F0E0
:100C6000070191B0D1E90001CDE90A0102F055FB7D
:100C700002460B98C00F01D02D2007E020688107A5
:100C800001D52B2002E0202101EAC000032A0990AF
:100C900001D0072A05DB03464146204600F018FA3A
:100CA0000BE12078800601D5E06900E00620B8F16C
:100CB000650F814606D0B8F1660F18D0B8F1670FFE
:100CC00070D131E00020B9F1110F009001DB112348
:100CD00001E009F101030AAA01A90CA8FFF7E2FE4D
:100CE000DDE90C70002609F10105834647E001208B
:100CF0004B4600904FF000470AAA01A90CA8FFF745
:100D0000D1FEDDE90DB00C995D46002610B909F160
:100D100001000D18B9EB050003D4C0F1FF3609F14D
:100D20000105A5EB09002BE0B9F1010F01DA4FF045
:100D300001090020B9F1110F0090484601DD11238F
:100D400000E003460AAA01A90CA8FFF7ABFEDDE903
:100D50000C704D4600268346207800070AD4AB4528
:100D600000DA5D4601A8012D04DD411911F8011CCE
:100D7000302907D04F4502DA17F1040F04DA0120B9
:100D800082460FE06D1EEEE7002F02DCED1B3E44B5
:100D900003E0781CA84200DD7D1CB81B00F1010AAD
:100DA0004FF000472078000703D4AA4501DB4FF03D
:100DB000FF3A0021B7F1004F0DF143088DF84310C1
:100DC00024D002202B23002F01DA7F422D230A2179
:100DD000021EA0F1010000DC5FB197FBF1FC97FB64
:100DE000F1F201FB1C7C17460CF1300C08F801CD28
:100DF000EEE7A8F1010003702188090501D545211E
:100E000000E06521A0F1010800F8011C09980FA974
:100E1000A1EB0807FF1D00B10120411901EBEA70A9
:100E2000A1693844081A401EA0612078C00602D487
:100E30002046AFF30080099828B1D4E901219047FA
:100E4000206A401C20622078C00622D52046AFF3DD
:100E500000801EE0002E04DBB34502DD01A8805DAA
:100E600000E03020D4E901219047206A401C206234
:100E7000761CAAF101005FEA000A0AD100F0D6F858
:100E8000C0680168405CD4E901219047206A401C99
:100E90002062281EA5F10105DCDC07E0D4E9012170
:100EA00018F8010B9047206A401C2062381EA7F1F9
:100EB0000107F3DC2046AFF30080032011B041E6C8
:100EC00001694A1C02610878704700B58FB0CDE90E
:100ED00001310021059105497944CDE903101146FE
:100EE0006846FFF739FB0FB000BD0000E5FFFFFFCC
:100EF0000A6802F8010B0A6070473A2800D23038BD
:100F000020F02002412A01D3A2F13700884201D308
:100F10004FF0FF3070470000026811441378016001
:100F200018467047D16005497944516104497944B4
:100F3000116200211161114600F00AB9EDFFFFFFB7
:100F40008D010000426842B1016811F8013B23B1F4
:100F5000521EC0E90012184670470121C160881E68
:100F6000704742685AB1C368016843B983688B42CD
:100F700005D0491E521CC0E90012002070474FF0F6
:100F8000FF30704710B5203AC0F00B80B1E8185020
:100F9000203AA0E81850B1E81850A0E81850BFF463
:100FA000F5AF5FEA027C24BFB1E81850A0E8185002
:100FB00044BF18C918C0BDE810405FEA827C24BF56
:100FC00051F8043B40F8043B08BF7047D20728BFE4
:100FD00031F8023B48BF11F8012B28BF20F8023B33
:100FE00048BF00F8012B70474FF000020429C0F001
:100FF000128010F0030C3FF4D3ACCCF1040CBCF124
:10100000020F18BF00F8012BA8BF20F8022BA1EB9C
:101010000C01FFF7C5BC5FEAC17C24BF00F8012BBF
:1010200000F8012B48BF00F8012B704700487047BB
:101030008C4B002030B5B0F10A024FEA900E71F1EE
:1010400000034EEA817EB0EB0E0061EB91014FEAA6
:10105000101E4EEA017E10EB0E0041EB11114FEA1B
:10106000102E4EEA016E10EB0E0041EB11214FEAFB
:10107000104E4EEA014E10EB0E0041EB11414018AC
:1010800041F100014FEAD00040EA41704FEAD1013E
:1010900010EB80054FEA810444EA907444EB0104AC
:1010A0006D1944EB0404521BA3414FF0000348BFE9
:1010B0000A3200D530BD401C41F1000130BD10B5F1
:1010C000044600F09BFA0068005D00F0010010BDCE
:1010D0002DE9F0411F46044603260168072A01F462
:1010E000006004DB08B116A505E016A503E008B111
:1010F00015A500E015A521F010002060A069C01E14
:10110000A0610FB1401EA0612046AFF300804FB137
:10111000D4E9012138469047206A401C2062C01C57
:10112000206206E0206AFAE7D4E9012115F8010BF4
:101130009047761EF8D22046AFF30080BDE8F081DC
:101140004E414E006E616E00494E4600696E66006B
:101150002DE9F34F4FF0000A0C4656468DB00120A2
:101160000C9001F10C000B9062690B9801219047E3
:10117000051E2DD0252D2CD0216A8847C0B162696B
:101180000B9801219047216A88470028F7D16269AE
:10119000411E0B98904700E0761CA1690D98884786
:1011A000216A88470028F7D1E1690D988847DBE775
:1011B000A1690D988847A842074601D1761CD3E75C
:1011C000E1690D9888477F1C02D1BAF1000F6FD0FA
:1011D0006BE162690B9800273D46394690472A2803
:1011E00004D162690B98012190470125DFF8D08274
:1011F00062690B9801219047A0F130010A290AD2B7
:101200004745E5DC07EB870100EB4107303FDFD4C2
:1012100045F01005ECE7E90601D46FF000476C28B3
:101220000AD04C2814D0682815D06A280DD074280C
:101230001CD07A281AD01DE062690B9801219047D2
:101240006C2802D045F0040514E045F002050DE0DD
:1012500045F020050AE062690B9801219047682853
:1012600002D045F0080505E045F4006562690B9879
:1012700001219047C4E9015765283DD019DC582861
:101280007AD00CDC452837D004DC252826D041282C
:101290009ED131E046282FD0472899D12CE05B28F9
:1012A00077D0612828D063287CD0642823D15AE0E5
:1012B000F6E06F2848D008DC66281DD067281BD0D0
:1012C000692821D06E2816D127E0702845D07328D0
:1012D00068D0752847D078280DD14DE0A1690D98C8
:1012E0008847252805463FF469AFE1690D9888478E
:1012F0006D1C3FF46AAFD8E00D9923466A466FF043
:101300000100AFF30080C5E045F0400023464FF0F8
:1013100000026060A80736D43EE0E8077FF447AFDC
:101320002068011D21600068290501D506701BE7B2
:10133000290701D5068017E7A90703D5F117C0E9EA
:10134000006111E706600FE745F0400023464FF0CB
:1013500008026060A80716D41EE040F60E0125EAD8
:101360000100606016E045F0400023464FF00A029D
:101370006060A80707D40FE045F040006060A80750
:1013800008D5234610220D996FF00100AFF30080BD
:1013900080E007E0102223460D996FF00100FFF76F
:1013A00081F977E04FF0000963284F46C8464B4665
:1013B000CB4602D05B2806D038E0E80601D40120F5
:1013C000A060012732E06269D4F80CB00B980121CB
:1013D00090475E2807D14FF0010949466269D4F869
:1013E0000CB00B989047216939B900210A4603AB2C
:1013F00043F82120491C0829FADBD8B3216949B3F5
:1014000008F1010862690B98012190475D28F4D129
:10141000B9F1000F09D0002003A951F82020D243D0
:1014200041F82020401C0828F7DB03AB2069002886
:1014300020794FEA40701ED05B462246CDF80080EE
:10144000CDE901970D9900286FF0010020DAAFF384
:1014500000801FE0C11703AA00EBD1614B1121F0FE
:101460001F0102EB8302411A1368012088400343E5
:101470001360C7E719E00D99224600286FF00100BC
:10148000009702DAAFF3008004E0AFF3008001E0E0
:10149000AFF3008000280ADA401C06D10C9820B176
:1014A0004FF0FF300FB0BDE8F08F5046FAE7E90784
:1014B00001D10AF1010A064400200C9054E6000014
:1014C000CCCCCC0C2DE9F047814616468AB0354885
:1014D00078440DC88DE80D0032487844801C03AC78
:1014E0000DC884E80D0041F69B300844372190FB7D
:1014F000F1F290FBF1F5A5F1800501FB12041B3C14
:1015000002D56442012000E00020DFF898A0804668
:101510000027FA44AAF1BE0A0EE0E0070AD03246DC
:10152000684607EB470101230AEB810100F050FBFD
:101530008DE8070064107F1C002CEED1194F7F440A
:10154000AE3F19E0E80715D007EB04100DF1180ABB
:1015500090E80E008AE80E00C068F04201D19819A8
:1015600008903246012306A903A800F031FB03AB23
:1015700083E807006D10641C002DE3D14FF00103D8
:1015800032466946B8F1000F03A802D000F00BFB09
:1015900001E000F01DFBC9E90001C9F808200AB00C
:1015A000BDE8F08760430000004870476C4B0020A6
:1015B0007546FFF7F9FFAE4605006946534620F031
:1015C0000700854618B020B5FEF7ECFEBDE82040C8
:1015D0004FF000064FF000074FF000084FF0000BEF
:1015E00021F00701AC46ACE8C009ACE8C009ACE8A2
:1015F000C009ACE8C0098D467047000010B5FFF780
:1016000015FD001D10BD00BF6937000010B5044670
:10161000AFF300802046BDE81040FEF734BE000066
:101620004FF0013C50F8042B51F8043B9A4221D171
:10163000A2EB0C03934313EACC1317D150F8042BFD
:1016400051F8043B9A4215D1A2EB0C03934313EAE1
:10165000CC130BD150F8042B51F8043B9A4209D11A
:10166000A2EB0C03934313EACC13DBD04FF0000042
:10167000704700BFD01A01BAB1FA81F101F0180128
:1016800022FA01F0CB40C1F12001DBB2C0B2C01A96
:101690002CFA01F3D11A914311EAC311E6D1704734
:1016A00001491820ABBEFEE72600020070475FEA42
:1016B000400C08BF91F0000F4FEA8C234FEAC12283
:1016C00043EA51514FEA1C5018BF00F5F0404FEA71
:1016D000300018BF41F000415FEA6C5C00F02980E7
:1016E000BCF1FF3F08BF40F080407047130C06BFBD
:1016F00012044FF0100C4FF0000C130E04BF120236
:101700000CF1080C130F04BF12010CF1040C930F21
:1017100004BF92000CF1020CD30F04BF52000CF175
:10172000010C11464FF00002A0F11F00A0EB0C00CD
:10173000704711F0004F08BF704731F000413FF48F
:10174000D5AF0B0C06BF09044FF0100C4FF0000C86
:101750000B0E04BF09020CF1080C0B0F04BF0901AA
:101760000CF1040C8B0F04BF89000CF1020CCB0FA1
:1017700004BF49000CF1010CCCF12003A0EB0C00DC
:1017800022FA03F302FA0CF241EA030100F101002C
:10179000704720F07F4C80EA030023F07F47ACEBDA
:1017A000070303F57C5300F0004003F1FF032DE92C
:1017B00080494FEA154B09B44FEA144325EA0B4E12
:1017C00024EA03480FF2042606EB132749083E7863
:1017D0005FEA320203FB0667C7F5000707FB06F660
:1017E0004FEA54374FEAD64606F1020607FB066C6D
:1017F000CCF1005C4FEA1C472CEA074C07FB06F4CF
:101800000CFB06F504EB15464FEA961634BF002094
:101810004FF000404FEAD13706FB07FC4FEA1C4C63
:101820000CFB0BF7D21B03FB0CF761EB07010CFB66
:101830000EF7B0EB074072EB17420CFB08F734BF12
:10184000A2EB0742B2EB074261EB17414FEA0C44AF
:101850004FEA910706FB07FC4FEA1C4C0CFB0BF709
:10186000B0EBC74072EB573203FB0CF734BFA2EB6F
:10187000C742B2EBC74261EB57310CFB0EF7B0EB3E
:10188000C70072EB57720CFB08F734BFA2EBC7021C
:10189000B2EBC70261EB5771039F4FEA816141EAE6
:1018A000921104EBCC044FEAD1374FEA826206FB77
:1018B00007FC42EA90124FEA80604FEA1C4C0CFB96
:1018C0000BF7D21B03FB0CF761EB07010CFB0EF7C8
:1018D000B0EB074072EB17420CFB08F734BFA2EBEA
:1018E0000742B2EB074261EB17414FEA8C554FEAD2
:1018F000910704EB9C2406FB07FC4FEA1C4C0CFBF5
:101900000BF7B0EBC74072EB573203FB0CF734BF59
:10191000A2EBC742B2EBC74261EB57310CFB0EF7AB
:10192000B0EBC70072EB57720CFB08F734BFA2EBA9
:10193000C702B2EBC70261EB577115EB4C254FEABA
:10194000816141EA92114FEA82624FEAD13742EA5D
:10195000901206FB07FC44F100044FEA80604FEA56
:101960001C4C0CFB0BF7D21B03FB0CF761EB0701C4
:101970000CFB0EF7B0EB074072EB17420CFB08F7BD
:1019800034BFA2EB0742B2EB074261EB174115EB04
:101990001C154FEA813141EA92414FEA823242EA14
:1019A00090424FEA80304FEA0C7644F1000448EA56
:1019B00003434EEA0B484FF0000EB2EB080C71EBFC
:1019C000030724BF624639464EEB0E0E4FF0000B64
:1019D0000018524149414BEB0B0BB2EB080C71EB79
:1019E00003077BF1000B24BF624639464EEB0E0E17
:1019F0004FF0000B0018524149414BEB0B0BB2EB7F
:101A0000080C71EB03077BF1000B24BF62463946DB
:101A10004EEB0E0E51EA020718BF46F0010616EB18
:101A20000E7655F1000254F1000103D5BDE889019D
:101A3000BDE80088BDE88901BDE80048B6195241FB
:101A400041EB0101A3F10103704780807F7E7D7C23
:101A50007B7A7978777676757473727171706F6E40
:101A60006E6D6C6C6B6A6A696868676666656464EB
:101A7000636362616160605F5F5E5E5D5D5C5C5B75
:101A80005B5A5A59595858575756565555555454E4
:101A9000535352525251515050504F4F4F4E4E4D42
:101AA0004D4D4C4C4C4B4B4B4A4A4A49494948488E
:101AB00048474747474646464545454444444443CE
:101AC00043434342424242414141002B9C4630D471
:101AD00077002BD01CB54FEA370703B44FF0100046
:101AE0004FF01001BAF1000F06D0BCF1000FDCBFBF
:101AF00040F0080040F008014FF000000FBCBDE8C6
:101B000010400BF1010BBBF1010F08BF5FEA170793
:101B100022BF12F1010211F101014FF0004143F126
:101B2000000300F0004043EA00007047F9D3570873
:101B3000D0E746EA064613F1400F4FEA16461FDD8E
:101B400013F1200FDFBF16430A46002120335B420A
:101B5000BED0C3F1200746EA064602FA07F74FEA6D
:101B6000164646EA0706C3F1200722FA03F201FAF5
:101B700007F721FA03F14FF0000342EA0702A7E753
:101B800046EA020646EA06464FEA164646EA0106D5
:101B9000BCBF46EA0646360C4FF000034FF0000289
:101BA0004FF0000194E72DE9804C9A46934670B4BB
:101BB00091E8380007C831EA400C48BF34EA430CCA
:101BC00003D5FFF7E6FDFFF780FFF0BCBDE8008C12
:101BD0002DE9804C9A46934670B491E8380007C8C6
:101BE00010F0804F08BF13F0804F03D100F005F8CC
:101BF000FFF76BFFF0BCBDE8008C20F07F4780EA68
:101C0000030023F07F4C07EB0C03A3F57C5300F09B
:101C10000040A3F1FE0392F0000F00F0B38095F0B6
:101C2000000F00F077802DE901494FEA11404FEA9B
:101C3000144621EA004800FB06FC24EA064708FB9C
:101C400006F607FB08F800FB07F718EB06484CEB15
:101C5000164C4FEA124B18EB07484FEA15464CEB6F
:101C6000174022EA0B4E0BFB06FC25EA06470EFB4B
:101C700006F607FB0EFE0BFB07F71EEB064E4CEBC2
:101C8000164C4FF000061EEB074E4CEB174B18EBB3
:101C90000B0840F1000018EB0E0B58EB000840F168
:101CA00000008F1A4FF000013CBFC943661B14BFF0
:101CB000B5EB040C00213CBFC943F61B4FEA1744A7
:101CC0004EEA8E0E27EA04454FEA1C4704FB0762E2
:101CD0002CEA074C05FB07F70CFB05F604FB0CFC94
:101CE00016EB074642EB174216EB0C4642EB1C4242
:101CF0001BEB060658EB0202414146EA9E0601D55F
:101D0000BDE80189B619524141EB0101A3F101037C
:101D1000BDE801894FEA14454FEA114724EA054618
:101D200021EA074C05FB07F406FB07F70CFB06F15D
:101D300005FB0CFC11EB074144EB17444FEA12473B
:101D400011EB0C4144EB1C4422EA074C05FB07F263
:101D500006FB07F70CFB06F605FB0CFC16EB07462B
:101D600042EB174216EB0C4642EB1C456A1854F145
:101D7000000148BF7047B619524141EB0101A3F180
:101D80000103704795F0000F37D04FEA11424FEA38
:101D9000144721EA024624EA074C02FB07F106FB3E
:101DA00007F70CFB06F402FB0CFC14EB074441EBB9
:101DB00017414FEA154714EB0C4441EB1C4125EA4F
:101DC000074C02FB07F506FB07F70CFB06F602FBC8
:101DD0000CFC16EB074645EB174516EB0C4645EB9E
:101DE0001C42121951F1000148BF7047B619524107
:101DF00041EB0101A3F1010370474FEA14454FEA9B
:101E0000114724EA054621EA074C05FB07F106FBCA
:101E100007F70CFB06F24FF0000605FB0CFC12EB7B
:101E2000074241EB174112EB0C4251EB1C4148BFFA
:101E30007047921841EB0101A3F101037047FEE7DF
:101E400070474FF4005000F081B82DE9F04104468E
:101E5000876D00F083F9064694F8350000250228C6
:101E600006D08020606584F834500120BDE8F08100
:101E70002068016821F0160101602068416921F0A5
:101E800080014161206C08B9A06C20B12068016814
:101E900021F0080101602068016821F00101016062
:101EA0000CE000F05BF9801B052807D92020606555
:101EB000032084F8350084F83450D7E720680068A0
:101EC000C007EED194F85C103F208840B860012034
:101ED00084F8350084F834500020C7E790F83510B6
:101EE000022903D08021416501207047052180F837
:101EF00035100068016821F0010101600020704781
:101F000070B5044600F02AF90546601C02D004486A
:101F10000078044400F022F9401BA042FAD370BDBF
:101F20000C000020B0F5005F05D164230F2202A150
:101F3000054800F089BE7047427574746F6E20705A
:101F400072657373656421009C000020044910B51C
:101F50000A68024202D00860FFF7E4FF10BD0000EB
:101F6000143C01402DE9F84FDFF8ACA10022012418
:101F700003254FF00F090AF1040BAAF1040E00BF6C
:101F80000B6804FA02F63340B3426ED10F7907F0C2
:101F90000307012F01D0022F16D187684FEA4208AC
:101FA00005FA08FC27EA0C07D1F80CC00CFA08FC6B
:101FB0004CEA070CC0F808C04768B7430E79C6F36F
:101FC000001696403E4346600E79F643B6070AD0A7
:101FD000C6684FEA420C05FA0CF7BE438F6807FA51
:101FE0000CF73743C7600E7906F00306022E10D1B6
:101FF000D60800EB8608D8F8206057074FEAD76C60
:1020000009FA0CF7BE430F6907FA0CF73743C8F813
:10201000207006684FEA420C05FA0CF7BE430F79B0
:1020200007F0030707FA0CF7374307604E6816F40A
:10203000403F6BD0394E376847F480473760366889
:1020400022F0030706F480460096354E07EB060C97
:10205000DCF8086897074FEA177809FA08F7BE43D3
:10206000304FB84202D100271FE04FE02E4FB84258
:1020700001D1012719E02D4FB84201D1022714E008
:102080002B4FB84201D103270FE02A4FB84201D1AC
:1020900004270AE0284FB84201D1052705E0274F61
:1020A000B84201D1062700E0072707FA08F73743AF
:1020B000CCF80878DAF800605746D1F804C09E439F
:1020C0005FEACC2C00D51E433E60DBF800605F4623
:1020D000D1F804C09E435FEA8C2C00D51E433E60BD
:1020E000DEF800607746D1F804C09E435FEA8C3C7E
:1020F00000D51E433E60084F083F3E68D1F804C03B
:102100009E435FEACC3C00D51E433E60521C102A21
:10211000FFF436AFBDE8F88F083C01404438024078
:10212000003001400000024000040240000802406C
:10213000000C02400010024000140240001802404F
:10214000426921EA02030A4043EA02418161704781
:102150000AB1816170470904FBE70000014880680B
:10216000704700000C00002002488168027811448A
:10217000816070470C0000200B4810B5016841F4E5
:1021800000710160016841F480610160016841F4FF
:1021900080710160032000F073F80F2000F006F852
:1021A00000F024F8002010BD003C024070B50D4D39
:1021B00004464FF47A712878B1FBF0F00A490968B7
:1021C000B1FBF0F000F040FB48B9102C07D2002220
:1021D0002146501E00F034F800206C6070BD0120D4
:1021E00070BD00000C000020180000200C4882B0D8
:1021F000016841F480410160006800F48040009073
:102200000748001F016841F080510160006800220A
:1022100000F0805000900F21901E02B000F010B826
:1022200044380240002809DB00F01F0201219140E0
:102230004009800000F1E020C0F800117047000064
:10224000F0B40E4B1B680C46C3F30223C3F1070521
:10225000042D00D90425191D072901D2002300E00F
:10226000DB1E012606FA05F1491E214099409E40D9
:10227000761E16403143F0BC01F067B80CED00E06B
:10228000064900F0070208684FF6FF03184040EACD
:102290000220034A10430860704700000CED00E084
:1022A0000000FA052DE9F0470E46050065D0DFF87D
:1022B0001481D8F80000F7B200F00F00B04207D246
:1022C00088F80070D8F8000000F00F00B04254D138
:1022D00028683D4C810712D5400703D5206840F49B
:1022E000E05020602878000703D5206840F4604063
:1022F00020602068A96820F0F0000843206028785A
:10230000C0072DD0304968680839012812D002284A
:1023100013D0032811D00968890700292DDA216814
:1023200021F0030101432160FFF718FF814641F2CC
:10233000883A0EE009688903EFE709688901ECE74C
:10234000FFF70CFFA0EB0901514502D90320BDE8BE
:10235000F0872068696800F00C00B0EB810FEFD1C6
:10236000D8F80010404601F00F01B14207D90770BC
:10237000006800F00F00B04201D00120E7E72878A4
:10238000400705D52068E96820F4E0500843206044
:102390002878000706D52068296920F4604040EAC3
:1023A000C100206000F038F82168084AC1F3031129
:1023B000515CC8400649086006480068FFF7F6FE11
:1023C0000020C4E7003C024008380240A057000843
:1023D0001800002010000020044805490068096822
:1023E000044AC1F38221515CC840704718000020A4
:1023F00008380240B05700080448054900680968D9
:10240000044AC1F34231515CC840704718000020B3
:1024100008380240B0570008224810B5006810F094
:102420000C02214815D02149042A11D01D4C241F2B
:10243000082A0FD00C2A0CD12268236802F03F0230
:102440005B0221D52068C0F38810A0FB010120E0C9
:10245000084610BD2268236802F03F025B0205D5E2
:102460002068C0F38810A0FB010104E02168C1F3DB
:102470008811A1FB00010023FDF7A6FF2168C1F32D
:102480000141491C49000AE02168C1F38811A1FB00
:1024900000010023FDF798FF2168C1F30271B0FB32
:1024A000F1F010BD083802400024F40040787D01AE
:1024B0002DE9F84F04007DD0DFF878B32078ABF138
:1024C0000407C007A7F1040550D0DBF800105846F8
:1024D000C1F3810101290FD00168C1F381010229F3
:1024E00002D13968490207D40068C0F3810003288B
:1024F00009D13868400206D52868800336D560685F
:102500000028D8D032E06068B0F5803F10D0B0F538
:10251000A02F286810D020F480302860286820F48C
:10252000802028606068A0B1FFF718FE06460CE026
:10253000286840F48030F4E740F480202860F7E712
:10254000FFF70CFE801B642876D828688003F7D537
:102550000CE0FFF703FE064605E000BFFFF7FEFDB7
:10256000801B6428F0D828688003F7D42078DFF82F
:10257000C89280074FF0000A44D5DBF80010584697
:1025800011F00C0F0FD00168C1F38101022902D1B3
:102590003968490207D50068C0F3810003280AD1D1
:1025A0003868400207D42868800715D5E0680128FC
:1025B00000D111E03AE1E068B0B10120C9F80000B3
:1025C000FFF7CCFD064604E0FFF7C8FD801B02289C
:1025D000BAD828688007F7D52868216920F0F80064
:1025E00040EAC10028600DE0C9F800A0FFF7B6FD81
:1025F000064604E0FFF7B2FD801B02281CD82868BD
:102600008007F7D42078000727D5DFF828828B4889
:10261000616908F16C0881B101210160FFF79EFD3D
:10262000064604E0FFF79AFD801B022804D8D8F87C
:1026300000008007F6D510E089E0C0F800A0FFF7A1
:102640008DFD064605E000BFFFF788FD801B0228D0
:102650007DD8D8F800008007F6D42078400769D5E7
:1026600074484FF0000838300068C0000BD471483F
:102670003830016841F08051016000684FF0010876
:1026800000F0805000906E4E3068C00511D4306864
:1026900040F480703060FFF761FD009006E000BFFD
:1026A000FFF75CFD0099401A022850D83068C00539
:1026B000F6D5604EA068683601280FD0052830682E
:1026C00010D020F001003060306820F0040030604D
:1026D000A068B8B1FFF742FD00900FE0306840F00D
:1026E0000100F4E740F004003060F7E7FFF736FD43
:1026F0000099411A41F28830814264D830688007DD
:10270000F4D50EE0FFF72AFD009007E0FFF726FD65
:102710000099411A41F28830814254D830688007CC
:10272000F4D4B8F1000F05D042483830016821F0E8
:1027300080510160A069A8B3DBF80010C1F38101EA
:10274000022947D00228C9F860A005D000E03AE08D
:10275000FFF704FD044639E0FFF700FD064604E0FC
:10276000FFF7FCFC801B02282DD828688001F7D4D5
:10277000F4E907010843E168324A490802EB0141E4
:10278000A26841EA82110843217C40EA0160217D70
:1027900040EA017038600120C9F86000FFF7DEFCF4
:1027A000044606E044E000BFFFF7D8FC001B022807
:1027B00009D828688001F7D53AE000BFFFF7CEFCC2
:1027C000001B022802D90320BDE8F88F2868800189
:1027D000F4D42DE00128F7D03868E26900F48001D4
:1027E000914223D1226A00F03F0191421ED147F667
:1027F000C071626A0140B1EB821F17D1A26A4FF02B
:10280000FF3300F4403103EB5202B1EB024F0DD124
:1028100094F82C2000F07061B1EB026F06D194F8AF
:10282000301000F0E040B0EB017F01D00120CBE799
:102830000020C9E70838024000004742800E4742A6
:10284000007000400000FFFF10B5401EB0F1807F17
:1028500001D3012010BD4FF0E02460610F2160170B
:1028600000F073FD0020A06107202061002010BD52
:1028700070477047F8B5016804460868CA684B6934
:1028800010F00F0F4FF0000559D003F0010602F4CD
:102890009077374365D0C10705D0D10503D5616C6A
:1028A00041F001016164410705D5D90703D0616C8E
:1028B00041F002016164810705D5D90703D0616C3D
:1028C00041F004016164010707D502F020013143A2
:1028D00003D0616C41F008016164616C00293AD059
:1028E000800604D5900602D5204600F0D3FB206870
:1028F0004069616CC0F38010090700D460B32046C2
:1029000000F0A1FB20684069400621D52068143002
:1029100050E8001F21F0400140E80012002AF5D1E4
:10292000E06BA8B172490165E06BFFF7D7FA0028A8
:1029300011D0E06B016D01B0BDE8F040084783069F
:102940000FD593060DD52046BDE8F84000F0A2BB98
:102950002046FFF78EFFF8BD2046FFF78AFF65642B
:10296000F8BD266B2023012E7ED1C6067CD5D60667
:102970007AD508684868009048694FF0020640061A
:102980004DD5E26B106840684FF480770004000C6E
:102990003AD0A18D814237D9E085D069B8422DD097
:1029A00020680C3050E8001F21F4807140E80012CC
:1029B000002AF5D12068143050E8001F21F00101F1
:1029C00040E80012002AF5D12068143050E8001FBA
:1029D00021F0400140E80012002AF5D184F842308D
:1029E000256320680C3050E8001F21F0100140E8FA
:1029F0000012002AF5D1E06BFFF727FA6663A08D7D
:102A0000E18D401A81B206E0A18D8142A8D1D06942
:102A1000B842A5D166632046FFF72AFFF8BDA08D16
:102A2000E18D401A81B2E08D0028F7D00029F5D061
:102A300020680C3050E8002F22F4907240E8002704
:102A4000002FF5D12068143050E8002F22F0010249
:102A500040E80027002FF5D184F842302563206834
:102A60000C3050E8002F00E006E022F0100240E8B1
:102A70000023002BF3D1CDE705062BD5150629D56C
:102A800094F841002128C9D1A068B0F5805F01D138
:102A90002069B0B1206A411C216221680078486039
:102AA000E08C401E0004000CE084B7D12068C168AF
:102AB00021F08001C1602068C16841F04001C1601F
:102AC000F8BD206A0088C0F308004860206A801CB6
:102AD0002062E5E74006F3D55006F1D5CA682046E6
:102AE00022F04002CA6084F8413000F0FDF8F8BDE1
:102AF0003930000870B5040004D094F84100002576
:102B000010B106E0012070BD84F84050204600F06E
:102B100023F8242084F841002068C16821F4005182
:102B2000C160204600F018FB2068016921F4904143
:102B300001612068416921F02A0141612068C16872
:102B400041F40051C1606564202084F8410084F89C
:102B500042006563002070BD10B586B004461421A4
:102B60006846FDF71BFF17492068884228D11648A0
:102B70000021026842F400320260006800F4003074
:102B8000059011481038026842F0010202600068A6
:102B900000F0010005900C2000900220CDE9010119
:102BA000032003900720049069460848FFF7DAF9EC
:102BB000002201212620FFF743FB2620FFF732FBEE
:102BC00006B010BD00440040403802400000024002
:102BD00090F84230202B01D00220704721B11AB169
:102BE0000023036300F03EBB0120704710B5144979
:102BF0001448FDF77AFE21211248FDF717FEB0B107
:102C000000201049044640310C54401C4028FBDB96
:102C10000C4901F14000FDF725FE09490120491E3C
:102C20000870084900200C54401C4028FBDB054874
:102C30000122BDE8104002494838FFF7C9BF000033
:102C400001000020E40000202DE9F843044690F83C
:102C50004100984616460D46202802D00220BDE8C5
:102C6000F88385B17EB100206064212084F84100A2
:102C7000FFF774FAA6848146E684A0682027B0F5A1
:102C8000805F02D003E00120E9E7206910B12E4601
:102C900000250EE000260CE08021204600F0FDFA21
:102CA000A8B9C6B116F8010B21684860E08C401E37
:102CB000E084E08C4B464FF00002CDF80080002805
:102CC000EAD14FF04001204600F0E7FA40B184F825
:102CD00041700320C3E735F8020BC0F30800E3E7B7
:102CE00084F841700020BAE77047FEE730B587B03E
:102CF00014216846FDF752FE1F480024016841F088
:102D000004010160016801F004010591016841F0CE
:102D100080010160016801F080010591016841F0C6
:102D2000010101600068154D00F0010005900022CE
:102D300020212846FFF70CFA4FF4005000904FF482
:102D40008810CDE9010469460D48FFF70BF92020F2
:102D500000900120CDE90104694628460394FFF75D
:102D600001F9002202212820FFF76AFA2820FFF744
:102D700059FA07B030BD0000303802400000024070
:102D800000080240FEE7FEE7642312220DA112486C
:102D9000FFF75AFF642000F0EFFB642310220FA11D
:102DA0000D48FFF751FF642000F0E6FB41F2883444
:102DB000642308220EA10848FFF746FF204600F0D2
:102DC000DBFBF5E753797374656D20626F6F74698F
:102DD0006E672E2E2E2100009C00002048656C6C32
:102DE0006F20776F726C64203A2920210000000068
:102DF00044656661756C74210000000086B03C4D2E
:102E0000287800286ED03BA13B48FDF719FD98B10A
:102E100039486423112239A18838FFF715FF3C4E49
:102E2000002420213046FFF78BF96420FFF768F873
:102E3000641C102CF5DB55E036A12F48FDF700FD92
:102E4000B0B12D486423122234A18838FFF7FCFE6C
:102E5000642000F091FBBFF34F8F35480168354A7D
:102E600001F4E06111430160BFF34F8F00BFFDE744
:102E700031A12148FDF7E4FCE0B11F486423122290
:102E80002FA18838FFF7E0FE0F2000F075FBFDF75B
:102E900061FAC82190FBF1F201FB12022DA16846F4
:102EA0003232FDF709FB6846FDF700FD82B264236C
:102EB000694613E02AA11048FDF7C2FC58B100F0A2
:102EC00003FB00F059FA0F2000F056FB0A49642377
:102ED0004022503102E06423102223A106488838A2
:102EE000FFF7B2FE002028700A2000F045FB87E7BC
:102EF000000000204C454400240100204C454420A3
:102F0000746573742072756E6E696E6721000000BF
:102F100000000240424F4F5400000000424F4F5407
:102F200020746573742072756E6E696E672100007F
:102F30000CED00E00400FA0550494E470000000087
:102F400050494E4720746573742072756E6E696EB9
:102F50006721000050696E673A2025642100000057
:102F600053454E534F525300496E76616C6964204D
:102F7000636F6D6D616E64210000000010B5FFF796
:102F8000F3F801F029FD012803D0BDE8104001F05D
:102F900057BA10BD30B593B034216846FDF7FEFC3A
:102FA00014210DA8FDF7FAFC1D480025016841F029
:102FB00080510160006800F080501290194801684B
:102FC00021F4404141F4804101600068022400F492
:102FD0004040129001200390102004900094069429
:102FE0000820CDE907504820CDE909040B94684634
:102FF0000C94FFF75DFA08B172B6FEE70DA90F2039
:1030000081E831004FF48050CDE9100502210DA870
:10301000FFF748F9002801D072B6FEE713B030BDC3
:1030200040380240007000400248016841F47001DD
:103030000160704788ED00E010B5806B0021C1850C
:10304000FFF717FC10BD01680C3151E8002F22F486
:10305000907241E80023002BF5D10168143151E84A
:10306000002F22F0010241E80023002BF5D1016B73
:10307000012909D101680C3151E8002F22F010021A
:1030800041E80023002BF5D1202180F842100021D7
:103090000163704708B590F84210222901D0022040
:1030A00008BD82684FF480539A4201D1016921B171
:1030B000816A9A421BD04AB10AE00268816A52686A
:1030C000C2F308020A80816A891C08E0026972B1B1
:1030D0000268526802F07F020A70816A491C8162AC
:1030E000C18D491E0904090CC18503D01BE002688B
:1030F0005268F1E70168CA6822F02002CA600168DC
:10310000CA6822F48072CA6001684A6922F001022A
:103110004A61202180F8421000214163026B012A9C
:1031200003D0FFF763FD002008BD016301680C3187
:1031300051E8002F22F0100241E80023002BF5D1C6
:1031400001680A68D20602D50A6849680091818D33
:10315000FFF78EFBE7E7000070B5044600680169E1
:10316000E26821F44051114301612169A068E269DC
:1031700008436169114308432168CA6849F20C6336
:103180009A430243CA6020684169A26921F44071F0
:103190001143416131492068884202D03049884258
:1031A00002D1FFF729F901E0FFF716F9E2690023E0
:1031B000192164253226B2F5004F626828D0A0FBA1
:1031C0000101930F9200FDF7FFF80146B0FBF5F007
:1031D0006FF01802504301EB800006EB0010B0FBCB
:1031E000F5F000F0F002B1FBF5F002EB0012B1FBDC
:1031F000F5F06FF01803584301EB800006EB001068
:10320000B0FBF5F000F00F0021681044886070BD3D
:10321000A0FB010192185B41FDF7D6F80146B0FB17
:10322000F5F00201B1FBF5F06FF01803584301EB24
:10323000800006EBC000B0FBF5F000F0F80002EBF8
:103240004002B1FBF5F0584301EB800006EBC000F3
:10325000B0FBF5F000F00700D6E7000000100140D9
:103260000014014081628285C285002141642221CF
:1032700080F84210016921B10168CA6842F4807285
:10328000CA6001684A6942F001024A610068C16887
:1032900041F02001C160002070472DE9F8439846B5
:1032A00017460D460446089E24E0701C22D0FEF707
:1032B00055FFA0EB0800B0421AD8CEB12068C16813
:1032C000490717D5802D15D0402D13D00168C9436B
:1032D00009070FD401680025406800902046FFF7D9
:1032E000B2FE0820606484F840500120BDE8F883F5
:1032F0000320FBE72068006835EA000004D00020C6
:10330000B842D2D00020F1E70120F9E70148FFF7E9
:10331000B1BA00009C000020FEE703B40198410010
:10332000009850EAC12018BF04204A0D18BF40F091
:10333000010040F2FF72B2EB515F08BF40F00200A3
:10334000012808BF052002B070470907090E0028B0
:1033500004DB00F1E02080F80014704700F00F005B
:1033600000F1E02080F8141D704730380A2801D29F
:103370000120704700207047F0B52DED048B83B01D
:10338000384880C890E87000FCF7E4FF01F067FF60
:103390009FED351B53EC112B01F0DAFD41EC180BBE
:1033A00033489FED349B854253EC192B51EC180B9D
:1033B00008DD01F06BFF9FED311B53EC112B01F089
:1033C0001FFD01E001F062FF01F01AFF05466FF0FA
:1033D0000200874201DC84420CDD51EC180B9FEDAA
:1033E000290B53EC102B01F051FF41EC100B9FED1A
:1033F000271B09E053EC192B51EC180B01F046FF89
:1034000041EC100B9FED231B51EC100B53EC112BD7
:1034100001F0F6FC01F0F4FE0446B6F5FA7F04DA9A
:103420009FED1E0B53EC102B01E053EC192B51ECCC
:10343000180B01F02BFF01F0E3FE064651EC180BD0
:1034400001F0ACFC02F00AF98DE843000548234680
:103450002A4614A11030FDF72FF803B0BDEC048B01
:10346000F0BD0000640100200000C0FFFFFFDF414D
:10347000E093040000000000000014400000000081
:103480000000224000000000000024400000000076
:1034900000804640000000000000394000000000AD
:1034A00000002E4053656E736F72732072657375E2
:1034B0006C74733A2025642C2025642C20252E332F
:1034C000662C2025642100001CB50548011FCDE9AC
:1034D00000100B1F1A1F03A14C38FDF7C5F81CBDC7
:1034E0007001002053454E534F52532C25642C2518
:1034F000642C25642C25642100000000FEF73CFEAE
:10350000FFF748FDFFF7F2FB164815490C22016052
:103510004FF41651416000218160C160C0E904127E
:103520008161C161FFF7E6FA08B172B6FEE70122D8
:103530000D490C48FFF74CFB00F02CF80B4A00211A
:103540000B4800F055F8084C084A641E24326060AD
:103550000021084800F04CF8A06000F02DF8FEE7CC
:10356000004400409C000020010000205857000843
:10357000892D0008FD2D000810B5EFF3058111B16C
:103580006FF0050403E0002408B100F0F9FD2046C7
:1035900010BD0000EFF3058010B16FF0050070471B
:1035A0000448016811B14FF0FF30704701210160FC
:1035B000002070476C00002010B5EFF3058010B1BB
:1035C0006FF0050010BD08480168012902D04FF0D6
:1035D000FF3010BD054A002182F8141D0221016050
:1035E00000F036FE002010BD6C0000200BE000E073
:1035F0002DE9FF414FEA01034FF00005EFF305818C
:10360000039549BB40B38027182100244AB31668AC
:1036100006B1344696691EB13146761E382E02D266
:103620001679F60703D0002004B0BDE8F081566992
:1036300006B1B708D2F808C0BCF1000F0DD0D568AC
:103640005C2D18D312693AB136B18DE806103A46AE
:10365000214601F096F903900DE0D6685EB9126933
:103660004AB903AACDE90012BAB2214601F05CF9C9
:10367000012800D003950398D6E700002DE9F0411A
:10368000134C0F460546E6682068001D00F044FC18
:10369000681C07D137B12168BDE8F0410D48091D0C
:1036A00000F08ABC20683544B5424560216805D2E7
:1036B000A06BBDE8F041091D00F066BC606B091D00
:1036C00000F062FCA06A854200D2A562BDE8F081EC
:1036D0001C000020A40600202DE9F041054600F062
:1036E00077FC2D4CA068401CA06020682B4F10B1C7
:1036F000606930B32BE02560A068012827D100263F
:1037000006EB860007EB800000F030FC761C382EBC
:10371000F6D3234800F02AFC2148143000F026FCA0
:103720001F48283000F022FC1D483C3000F01EFCF1
:103730001B48503000F01AFC194860631430A06335
:1037400005E02068E96AC06A884200D82560606A9E
:10375000401C60626864E86A2169884200D920617F
:1037600000EB800007EB8000291D00F025FC00F035
:103770004FFC606900280CD02068E96AC06A884262
:1037800007D208494FF080500860BFF34F8FBFF356
:103790006F8FBDE8F08100001C000020F4010020C4
:1037A0005406002004ED00E038B500F011FC104C88
:1037B0002068C8B90F4800F0D9FB0E48143000F05B
:1037C000D5FB0C48E060143020610A4B0020F03B30
:1037D000009003F1500210210A2000F047FE206003
:1037E00010B105A100F096FCBDE8384000F010BC17
:1037F00058000020A8070020546D725100000000FE
:1038000030B4026C0B46002A0BD0C1681144C16071
:103810008468A14201D30168C16030BC1846FDF73D
:1038200070B830BC70472DE9F041856B17460446EF
:103830000026026C82B1C7B1E068FDF762F8E1686A
:10384000206C091AE1602268914202D2A168081A2C
:10385000E060022F16D017E02068A8B9A06801F038
:1038600033F906460020A0600EE06068FDF749F8D5
:10387000216C606808446060A168884204D32068B5
:10388000606001E005B16D1E6D1CA5633046BDE8AA
:10389000F08110B5044690F8590058B101280CD0B9
:1038A00002280FD0502080F31188BFF34F8FBFF351
:1038B0006F8FFEE7206B00F0BFFB2046BDE8104095
:1038C00000F0BABB10BD000010484FF47051420721
:1038D00006D0C01D0D4920F00700411AC1F57051F6
:1038E0000B4A00230144C2E900030839183A21F0C9
:1038F000070111604B600B600B1AC0E90013936065
:103900004FF000405360506170470000880E002067
:1039100088000020144E154CA6F29C474FF08058AA
:10392000DFF84C9012E000BF00F052FBF068C56871
:10393000281D00F0F1FAA068401EA0606068401EDB
:10394000606000F065FB2846FFF7A3FF6068002871
:10395000EAD138680128F9D9C9F80080BFF34F8F40
:10396000BFF36F8FF2E70000900600201C000020DC
:1039700004ED00E070B51D46049C51B1C4F8002070
:10398000C4E90F010121204600F0A4FD84F84C5049
:1039900070BD2460F4E700002DE9F05F8846DDE9A2
:1039A0000B941546834691009A460A9EA522206BE9
:1039B000FCF7ECFF6FF00301206B01EB850108447D
:1039C00020F00707780707D0502080F31188BFF355
:1039D0004F8FBFF36F8FFEE70025B8F1000F0FD0B8
:1039E0005FF00000221818F8001082F8341018F860
:1039F000001011B1401C1028F4D384F8435001E0AA
:103A000084F83450382E00D33726E662C4E91365B3
:103A1000201D00F0B6FA04F1180000F0B2FA24619B
:103A2000C6F138006462A061656584F8585052465A
:103A30005946384600F05AFA2060B9F1000F01D01B
:103A4000C9F80040BDE8F09F30B5114900E01146CB
:103A50000A688242FBD34B685C18844203D14068F9
:103A600018444860084643681C18944209D1084C21
:103A7000183C2468A24209D052681A4442600A687D
:103A800012680260814200D0086030BD0460F9E72E
:103A90008800002070B5002441600B4D0061914208
:103AA00006D8D11A8269914206D2011D286907E021
:103AB0009A4203D2994201D3012403E0011DE86830
:103AC00000F062FA204670BD5800002010B5044690
:103AD00000F07EFAA06B28B15FF0000400F098FAC5
:103AE000204610BD0124F9E730B589B03C4D6EE0A9
:103AF0000498002806DADDE90601059A9047049843
:103B0000002864DB069C606910B1201D00F004FAF7
:103B100003A800F0D7F8024604980A2857D2DFE835
:103B200000F00505052D334A05052D3394F82800CE
:103B300040F0010084F828000599A069059B014424
:103B40002046FFF7A7FF68B3216A2046884794F80C
:103B5000280040073BD5002000900598A16900236C
:103B600042181946204601F0B9F8D8B9502080F320
:103B70001188BFF34F8FBFF36F8FFEE714F8280F44
:103B800020F00100207022E094F8280040F00100AD
:103B900084F828000598A06128B1811813462046B2
:103BA000FFF778FF13E0502080F31188BFF34F8FA9
:103BB000BFF36F8FFEE794F82800810703D42046F7
:103BC00000F03AFA03E020F0010084F82800002217
:103BD00004A9286800F0D2FD002889D109B030BDC1
:103BE000580000202DE9FC410F46054600F074FB0B
:103BF00001A800F067F80446019818B100F0DCFF56
:103C0000BDE8FC81254EAFB130690068D0B3002714
:103C1000291B3A46306800F091FA00F0CDFF0028E9
:103C2000EED11F494FF080500860BFF34F8FBFF3B4
:103C30006F8FE5E7A542EBD800F0BEFFF06827469E
:103C4000C068C468201D00F067F994F82800410797
:103C500019D5A0692B4641193A462046FFF71AFFAD
:103C6000A8B100200346014600902A46204601F0F4
:103C700035F860B9502080F31188BFF34F8FBFF340
:103C80006F8FFEE707E020F0010084F82800216A2A
:103C900020468847B4E70127BAE700005800002013
:103CA00004ED00E00648416B096829B1416BC96821
:103CB000C9684968816270474FF0FF31FAE7000038
:103CC0001C00002070B5054600F094FE064E044628
:103CD000B068844203D200F009F8012000E000201F
:103CE00028602046B46070BD58000020F8B5194D1A
:103CF00020E0C068C4680668201D00F00DF9216A44
:103D00002046884794F82800400713D5A06930441E
:103D1000B04206D924616060211DE86800F034F9E2
:103D200008E000200346014600903246204600F09D
:103D3000D5FF38B1E86801680029DAD12969C5E9F9
:103D40000310F8BD502080F31188BFF34F8FBFF3ED
:103D50006F8FFEE75800002008484068401C4FF075
:103D6000500080F3118804D0BFF34F8FBFF36F8FE3
:103D7000FEE7BFF34F8FBFF36F8FFEE79000002089
:103D8000074CE068016841B1C0680021D0F800002C
:103D9000FFF728FFFFF7A8FEF3E701210020F7E770
:103DA000580000202DE9F041044600F011F994F983
:103DB000455004F1240609E0606A48B1304600F03D
:103DC000C3FE08B100F00AFA6D1E6DB2002DF3DCDF
:103DD0004FF0FF3684F8456000F01AF900F0F8F86B
:103DE00094F9445004F1100709E0206948B13846BD
:103DF00000F0AAFE08B100F0F1F96D1E6DB2002DC1
:103E0000F3DC84F84460BDE8F04100F001B9000043
:103E10002DE9F0410546002700F05EFA324E306889
:103E200008B9FFF751FD706905424ED1C5B3083599
:103E300068070ED005F00700C0F1080005446807C8
:103E400007D0502080F31188BFF34F8FBFF36F8FDF
:103E5000FEE72DB37068854237D8234818300146F5
:103E60000C6801E020460C466168A94202D2216834
:103E70000029F7D131688C4227D00768216801609A
:103E800060680837411B10290FD96019420708D014
:103E9000502080F31188BFF34F8FBFF36F8FFEE781
:103EA00013E041606560FFF7CFFD61687068401AFC
:103EB0007060B268904200D2B06070690143002027
:103EC000C4E90001F068401CF06000F075FE78075E
:103ED00007D0502080F31188BFF34F8FBFF36F8F4F
:103EE000FEE73846BDE8F0817000002010B5031FE2
:103EF0004FF080741C601B1F21F001011960191F15
:103F0000044B0B6014390A60091F6FF00202443839
:103F10000A6010BD593D0008D0E9013201699A607C
:103F2000D0E901235A604A68824201D182684A601E
:103F3000002202610868401E08600868704700009F
:103F4000034B036003F15C00086080201060704741
:103F5000D0070020044B036003F15C0008604FF4BD
:103F600080701060704700002C0A002000F10801EA
:103F70004FF0FF32C0E90112C16001610021016010
:103F8000704700210161704730B50B685A1C02D0A0
:103F900000F1080202E0026904E022465468256844
:103FA0009D42FAD953684B6099608A6051600861FC
:103FB0000168491C016030BD42684A6093688B60AB
:103FC00093685960916008610168491C01607047FD
:103FD000502080F31188BFF34F8FBFF36F8F0A49D2
:103FE0004868401C486001280CD10848006810F05F
:103FF000FF0F07D0502080F31188BFF34F8FBFF31E
:104000006F8FFEE7704700009000002004ED00E095
:104010000849486828B1401E486001D180F31188E2
:104020007047502080F31188BFF34F8FBFF36F8F1D
:10403000FEE700009000002070B500282AD0164D41
:10404000A0F1080460686969084207D1502080F334
:104050001188BFF34F8FBFF36F8FFEE722683AB12D
:10406000502080F31188BFF34F8FBFF36F8FFEE7AF
:104070008843606000F030F96068696808446860EF
:104080002046FFF7E1FC2869401C2861BDE870402C
:1040900000F092BD70BD0000700000204FF0E020E5
:1040A00000210161816105494FF47A720968B1FB11
:1040B000F2F1491E4161072101617047180000209B
:1040C00010B5FCF743F9114910280ED300F1E02098
:1040D00090F8F0030A78904207D2502080F31188BC
:1040E000BFF34F8FBFF36F8FFEE709480068896801
:1040F00000F4E060884207D9502080F31188BFF3B4
:104100004F8FBFF36F8FFEE710BD000090000020BF
:104110000CED00E010B5084B002200BF53F8324010
:104120001CB1521C082AF9D310BD43F8321003EB1E
:10413000C201486010BD0000B401002070B51546F2
:104140000E460446FFF744FF94F944100020491C32
:1041500001D184F8440094F94510491C01D184F838
:104160004500FFF755FFA06B28B92A46314604F1F8
:10417000240000F051F82046BDE87040FFF712BE61
:1041800010B5020014D00F48006B38B1502080F3F6
:104190001188BFF34F8FBFF36F8FFEE700F09CF8DD
:1041A00000211046FFF76AFA00F006FD002807D14B
:1041B00005494FF080500860BFF34F8FBFF36F8FFA
:1041C00010BD00001C00002004ED00E002490A6A56
:1041D0000260C968416070471C000020014901204D
:1041E000C86170471C00002010B50C4650B1094949
:1041F00009681831FFF7C8FE2046BDE810400121CC
:10420000FFF73CBA502080F31188BFF34F8FBFF304
:104210006F8FFEE71C00002070B514460D4668B194
:104220000A4909681831FFF7C7FE0CB14FF0FF3596
:1042300021462846BDE87040FFF720BA502080F3A1
:104240001188BFF34F8FBFF36F8FFEE71C00002074
:1042500030B587B00024039405AA04A903A80494E8
:10426000FFF76EFEDDE903010094CDE901100023A4
:1042700015A11748059A00F084FB164D0028E86246
:104280001FD000F0FBFC012809D0401C19D15020A0
:1042900080F31188BFF34F8FBFF36F8FFEE750207D
:1042A00080F31188BFF34F8FBFF36F8F4FF0FF3054
:1042B000A86201206861EC6007B0BDE8304000F002
:1042C00045B807B030BD000049444C45000000002F
:1042D000153900081C0000200248016B491C0163CD
:1042E000704700001C000020164810B5016B11B18A
:1042F0000121C16110BD0021C1610169124A01E0C3
:10430000B9B1491E01EB810352F82330002BF7D0DD
:1043100001EB810302EB830202F1080453685B683E
:104320005360A34201D15B685360DA6802600161A7
:1043300010BD502080F31188BFF34F8FBFF36F8FF4
:10434000FEE700001C000020F40100201CB53748E7
:104350000168374A914207D1502080F31188BFF39A
:104360004F8FBFF36F8FFEE700683149491E8842C7
:1043700007D1502080F31188BFF34F8FBFF36F8FA9
:10438000FEE72C4908780190FF20087008788DF826
:1043900000009DF800009DF8002000F0F000904221
:1043A00007D0502080F31188BFF34F8FBFF36F8F7A
:1043B000FEE79DF80000204C00F050002070072020
:1043C000A06005E09DF8002052008DF80020401EFE
:1043D0009DF800201206F5D4A060032807D05020D5
:1043E00080F31188BFF34F8FBFF36F8FFEE74FF459
:1043F0004070A060019808700C482030016841F4BA
:1044000070010160016841F070410160FFF746FEF4
:1044100000206060FBF762FF0848016841F04041FE
:104420000160FBF747FF00201CBD000000ED00E02D
:1044300071C20F4100E400E09000002034EF00E082
:1044400010B5502080F31188BFF34F8FBFF36F8FEB
:1044500000F0D6FA18B104494FF0805008600020EF
:1044600080F3118810BD000004ED00E038B5049D14
:1044700018B153B1CAB181B120E0502080F3118846
:10448000BFF34F8FBFF36F8FFEE7502080F311888B
:10449000BFF34F8FBFF36F8FFEE7502080F311887B
:1044A000BFF34F8FBFF36F8FFEE739B1502080F31A
:1044B0001188BFF34F8FBFF36F8FFEE750241C4668
:1044C000012384F846302B460094FFF753FA204628
:1044D00038BD000070B50D46040025D0FFF778FD0B
:1044E000D4E90F20216802FB0011A1600021A16323
:1044F000216861600A46D4E90F01401E00FB0121DA
:10450000E16021464FF0FF3001F8440F487004F19C
:1045100010008DB1FFF72AFD04F12400FFF726FDFE
:10452000FFF776FD012070BD502080F31188BFF3A6
:104530004F8FBFF36F8FFEE721690029F0D000F0A5
:1045400003FB0028ECD004494FF080500860BFF313
:104550004F8FBFF36F8FE3E704ED00E02DE9FF47D6
:1045600082B01D468A464FF00008040003D0BAF11D
:10457000000F08D011E0502080F31188BFF34F8F57
:10458000BFF36F8FFEE7206C38B1502080F31188A5
:10459000BFF34F8FBFF36F8FFEE7022D0AD1E06BA1
:1045A000012807D0502080F31188BFF34F8FBFF34D
:1045B0006F8FFEE700F010FA3F4F4FF000094FF009
:1045C000805648B9049838B1502080F31188BFF361
:1045D0004F8FBFF36F8FFEE7FFF7FAFCA06BE16B25
:1045E000884207D3022D05D00498D0B1B8F1000F4E
:1045F0001AD01EE02A4651462046FFF714F9616A98
:1046000019B104F1240000F09FFA20B13E60BFF31D
:104610004F8FBFF36F8FFFF7FBFC012006B0BDE8A3
:10462000F087FFF7F5FC22E06846FFF7CFFD4FF07B
:104630000108FFF7EDFCFFF74FFEFFF7C9FC94F907
:104640004400401C01D184F8449094F94500401C7A
:1046500001D184F84590FFF7DBFC04A9684600F01F
:1046600029F930B12046FFF79DFB00F0A5FA0020A4
:10467000D4E7FFF7ADFCA06BE16B884213D1FFF7E5
:10468000C7FC04F110000499FFF7AEFD2046FFF7C8
:1046900089FB00F091FA00289ED13E60BFF34F8F56
:1046A000BFF36F8F98E7FFF7B3FC2046FFF77AFB65
:1046B00000F082FA90E7000004ED00E02DE9F047F9
:1046C0001F4690468946040003D0B9F1000F08D078
:1046D00011E0502080F31188BFF34F8FBFF36F8F2D
:1046E000FEE7206C38B1502080F31188BFF34F8F64
:1046F000BFF36F8FFEE7022F0AD1E06B012807D0CE
:10470000502080F31188BFF34F8FBFF36F8FFEE708
:10471000FFF7D6FC5020EFF3118680F31188BFF32A
:104720004F8FBFF36F8FA06BE16B884206D3022FD0
:1047300004D0002086F31188BDE8F08794F9455035
:10474000A06B3A4649462046FFF76DF8681C04D036
:104750006D1C84F845500120ECE7606A0028FAD00F
:1047600004F1240000F0F0F90028F4D0B8F1000FB3
:10477000F1D00121C8F80010EDE700002DE9F7475E
:10478000002683B08A46040003D0BAF1000F08D097
:1047900011E0502080F31188BFF34F8FBFF36F8F6C
:1047A000FEE7206C38B1502080F31188BFF34F8FA3
:1047B000BFF36F8FFEE700F00FF9DFF8F4804FF0E2
:1047C00000094FF0805748B9059838B1502080F360
:1047D0001188BFF34F8FBFF36F8FFEE7FFF7F8FB32
:1047E000A56BC5B151462046FFF70AF86D1EA563BB
:1047F000206950B104F1100000F0A6F928B1C8F802
:104800000070BFF34F8FBFF36F8FFFF701FC0120E4
:1048100006B0BDE8F087059808B11EB106E0FFF7C5
:10482000F7FB27E06846FFF7D1FC0126FFF7F0FB16
:10483000FFF752FDFFF7CCFB94F94400401C01D177
:1048400084F8449094F94500401C01D184F84590C7
:10485000FFF7DEFB05A9684600F02CF8002820468B
:104860000AD0FFF79FFA00F0A7F92046FFF72EF9CC
:104870000028B3D00020CBE7FFF728F990B104F16E
:1048800024000599FFF7B0FC2046FFF78BFA00F0F3
:1048900093F90028A2D1C8F80070BFF34F8FBFF37F
:1048A0006F8F9BE72046FFF77DFA00F085F995E7CB
:1048B00004ED00E02DE9F0410C46050011D0C4B133
:1048C000FFF786FB174BDA686E682068911B471C60
:1048D00017D02F681B6A9F4219D0964217D801241F
:1048E00010E0502080F31188BFF34F8FBFF36F8F1C
:1048F000FEE7502080F31188BFF34F8FBFF36F8F17
:10490000FEE70024FFF784FB2046BDE8F0818842E3
:1049100005D9401A20602846FFF758FCF1E700202F
:104920002060DCE71C0000202DE9FF5F8346DDE905
:104930000E87994616468A469000FFF769FA0500E9
:104940001CD05C20FFF764FA040014D0002025631B
:1049500084F85900CDE90240CDE900874B46324644
:1049600051465846FFF718F82046FEF7B5FE0120DD
:1049700004B0BDE8F09F2846FFF75EFB4FF0FF3024
:10498000F6E7F0B585B0DDE90B640A9DA6B1DCB1B0
:104990005C2700972663022684F85960002604AF3E
:1049A000CDE90246CDE90057FEF7F6FF2046FEF7B7
:1049B00093FE049805B0F0BD502080F31188BFF33A
:1049C0004F8FBFF36F8FFEE7502080F31188BFF346
:1049D0004F8FBFF36F8FFEE70548416919B1006B38
:1049E00018B1002070470120704702207047000076
:1049F0001C0000200148C068704700001C00002017
:104A00002DE9F0412E4C0027206B28B1A069401CF5
:104A1000A0613846BDE8F081E668761CE66013D1F7
:104A2000606B006838B1502080F31188BFF34F8F5E
:104A3000BFF36F8FFEE7606BA16B6163A063206AB9
:104A4000401C2062FFF72EF9A06ADFF878808642CA
:104A500009D3606B0068A0B1606BC068C568686806
:104A6000864211D2A0622068C06A00EB800158F82B
:104A70002100012800D90127E0690028C9D00127B9
:104A8000C7E74FF0FF30EDE7281DFFF745FAA86AAA
:104A900018B105F11800FFF73FFAE86A216988426A
:104AA00000D9206100EB800108EB8100291DFFF790
:104AB00083FAE86A2168C96A8842CAD30127C8E72D
:104AC0001C000020F401002070B504004FF000012C
:104AD00033D01B4D2868844207D0502080F31188C2
:104AE000BFF34F8FBFF36F8FFEE7206D38B1401ECD
:104AF0002065E36CE26A9A421FD040B11DE050206D
:104B000080F31188BFF34F8FBFF36F8FFEE7201D37
:104B1000FFF702FAE06CE062C0F13800A061E06AE1
:104B20002969884200D92861064900EB800001EB21
:104B30008000211DFFF740FA0121084670BD0000EA
:104B40001C000020F401002070B5C068C46854B196
:104B500004F118000646FFF7DFF9144D286B50B139
:104B60003146134815E0502080F31188BFF34F8F72
:104B7000BFF36F8FFEE7201DFFF7CEF9E06A2969CA
:104B8000884200D928610B4900EB800001EB8000CE
:104B9000211DFFF711FAE06A2968C96A884202D923
:104BA0000120E86170BD002070BD00001C000020E5
:104BB0007C060020F40100202DE9F0472C4D002454
:104BC0002746286B38B1FFF703FA286B401E28638D
:104BD000286B40B146E0502080F31188BFF34F8F1F
:104BE000BFF36F8FFEE7A968224E0120D1B3A6F56F
:104BF000916980463068E0B1F068C46804F118003B
:104C0000FFF78AF9201DFFF787F9E06A29698842D2
:104C100000D9286100EB800109EB8100211DFFF71D
:104C2000CBF9E06A2968C96A8842E3D3C5F81C80D9
:104C3000E0E70CB1FFF736F8AC694CB14FEA080673
:104C4000FFF7DEFE00B1EE61641EF9D10020A8611D
:104C5000E86938B10849012738070860BFF34F8F6A
:104C6000BFF36F8FFFF7D4F93846BDE8F087000037
:104C70001C0000207C06002004ED00E010B586B08A
:104C8000FEF792FD114C2068B8B10020039004900B
:104C900005AA04A903A8FFF75DF9DDE903210220B5
:104CA0008DE8070000230AA10B48059AFFF769FE6B
:104CB000606010B106B0012010BD502080F3118853
:104CC000BFF34F8FBFF36F8FFEE700005800002047
:104CD000546D722053766300813D00082DE9FF4139
:104CE0001E46134602000A9D4FF0000016D0144CD9
:104CF0002768002F0FD0CDE900130292062917DA9A
:104D0000FFF76AFE02284FF000030FD00022694629
:104D10002068FFF723FC04B0BDE8F081502080F349
:104D20001188BFF34F8FBFF36F8FFEE72A46EEE780
:104D30000023324669463846FFF7C0FCEBE7000027
:104D40005800002010B500290AD00878002807D0A4
:104D500005487844FCF764FC002801D0002010BD11
:104D60000248784410BD0000320B00002A0B0000FE
:104D700010B500290AD00878002807D005487844E3
:104D8000FCF74EFC002801D0002010BD02487844FA
:104D900010BD0000220B00001A0B000021F00042A1
:104DA000A2F16052B2F5801F01F0004328BFD2F19A
:104DB0007F6C0BD95FEA001C43EAC20242EB5070E1
:104DC00018BF704728BF20F001007047B2F5801F60
:104DD000BCBF184670474FEA410C1CF5001F02D2B9
:104DE000084600F0B1BC70B500F0FAFA0000008986
:104DF000FFF7F6BF4FF00040A0F5800070470000BD
:104E000010B591EA030F48BF83F0004300F14483DB
:104E1000841A71EB030C05D2121943EB0C03001B2F
:104E200061EB0C01DFF824E14FEA1154A4EB135CB1
:104E30001EEA430F18BF9EEA445F73D023EA0E03B5
:104E4000DCF1200E21EA045143F4801332D322FA1C
:104E50000CFE10EB0E0023FA0CFE41EB0E01CCF120
:104E6000200E03FA0EFE10EB0E0051F10001B1F519
:104E7000801FCCF1200E32D201EB045112FA0EF257
:104E8000BDE8104058BF7047401C38BF5FEA42027F
:104E900018BF7047002814BF20F0010041F1000145
:104EA0004FEA410313F5001F38BF7047A1F1C0411D
:104EB00000F0E4BA012A43EB0302ACF1200CDCF170
:104EC0001F0E32BF4FF0000E23FA0CF310EB03005D
:104ED00041EB0451B4EB115FD0D0A1EB045101F5CB
:104EE000801149085FEA300001EB04510ED350F104
:104EF000000038BF12FA0EFE08D1BDE81040C9E725
:104F0000401C38BF5FEA4202CAD1C3E7BDE8104087
:104F10004FEA410313F5001F38BF7047A1F1C041AC
:104F200000F0ACBA9EEA445F08D011EA5E0FBDE81B
:104F3000104004BF01F0004100207047BDE8104060
:104F400070B500F04DFA00BF64FBBE3E0000E0FF0C
:104F50002DE9C04130B4DFF8A0C23CEA111418BFFB
:104F60003CEA131400F0EC8081EA03051CEA1114FA
:104F700044EAD57418BF1CEA131500F0C780A4EBEF
:104F800005044FF0004545EAC12145EAC32341EA43
:104F9000505143EA525304F17F74994204F50034AE
:104FA0004FEAC0204FEAC22208BF904200F09C8026
:104FB0004FEA13650FF24016765D4FEA134506FB84
:104FC00005F7C7F1807706FB07F74FEAD737A7FB4E
:104FD00003687642C8F58038A7FB06CE38BFA8F133
:104FE000010807FB08E64FF0000EA6FB028CE6FB6B
:104FF00003CEDCF1000CCEF1004E38BFAEF1010E55
:10500000A6FB0C584FF000074FF00005E6FB0E879B
:10501000A1FB08C6A0FB07CE16EB0E0645F1000566
:10502000E1FB076515F1E04E7EBFA4F580345FEA31
:1050300046066D4116F1800745F100054FEA172736
:105040004FEA066647EA0567A6F1DE46B6F1805FDD
:105050004FEA15251FD9384624F0010C05EBC47121
:10506000BCF1FE6F01EB0C1102D8F0BCBDE8008171
:1050700024425CBF01F5801E9EEAC47F02D4F0BCCE
:10508000BDE80081244238D4F0BCA1F1C041BDE8A4
:10509000004100F0F3B94FEAD22242EA43524FEA0C
:1050A000D323A7FB02864FEAD02040EA415007FBFA
:1050B00003661EEA0E0F4FEAD12105FB026658BFB8
:1050C000A6EB0056B6EB00564FEA520E4EEAC37EF0
:1050D00018EB0E0E56EB530EBDD518EB02085E41D1
:1050E0007F1C55F10005B6E74FF480154FF000071F
:1050F0004FF000064FF00008ADE7F0BC4FF00000A5
:1051000001F1C04101F00041BDE8008111EA0C1F2E
:105110000CEA131500D00CE013EA0C1F00F02580F8
:105120004FF00000F0BC81EA030101F00041BDE84E
:105130000081F0BCBDE8004181EA030100F09EB9A6
:10514000F0BCBDE8004170B500F04AF9097EFC3EB4
:1051500000F007B881EA03014FF0000001F00041C0
:10516000704781EA030100F089B9F0BCBDE8004155
:105170004FF0000021497047FFFDFBF9F7F5F4F20D
:10518000F0EEEDEBE9E8E6E4E3E1E0DEDDDBDAD8E2
:10519000D7D5D4D3D1D0CFCDCCCBCAC8C7C6C5C440
:1051A000C2C1C0BFBEBDBCBBBAB9B8B7B6B5B4B357
:1051B000B2B1B0AFAEADACABAAA9A8A8A7A6A5A442
:1051C000A3A3A2A1A09F9F9E9D9C9C9B9A99999806
:1051D0009797969595949393929191908F8F8E8EA9
:1051E0008D8C8C8B8B8A8989888887878685858436
:1051F00084838382828181800000FF070000F87F22
:105200004FEA41034FEA5353A3F58063D3F11E03E2
:10521000C8BFD3F1210C0CDD4FF0004242EAC1229D
:1052200042EA505232FA03FC8CEAE17CACEBE170CA
:105230007047102BC4BF0020704703F5787CBCF189
:10524000FF3F04D06FF0004282EA2100704770B542
:1052500000F0C6F84992248000207047F2E710F071
:10526000004248BF4042B0FA80F310FA03F10AD07E
:10527000C3F11D0303F580634FEA415002EB035273
:1052800002EBD12170474FF000007047DFF848C1B2
:1052900070B51CEA111E1EBF1CEA13159EEA0C0F06
:1052A00095EA0C0F00F06F8081EA030423EA4C13A7
:1052B0004EEAD47E21EA4C1141F4801143F480136C
:1052C000AE44A1FB024CA0FB0365AEF17F7E361914
:1052D00055EB0C05A1FB034C4CF10003A0FB021C99
:1052E00016EB0C06654153F10003094218BF46F066
:1052F000010613F4007F0BD14FEA03314FEA05306A
:10530000340341EA155140EA16506FF003020AE0F7
:105310004FEAC3214FEAC520F40241EA555140EA61
:1053200056506FF0020202EB2E4201EB025585EA65
:10533000CE710AD05FEA440C18BF24F0004450F14B
:10534000000041F1000120EAD47040F2FE7C624589
:1053500000D270BDA84214BF4FF080444FF04044CB
:10536000002E08BF0024BEF1806FA8BFA1F1C0418C
:10537000BDE8704080F282804FF0000001F1C04132
:1053800001F0004170479EEA0C0F0CEA131518BF9C
:1053900095EA0C0F06D04FF0000081EA030E0EF0E4
:1053A000004170BD00F01CF88900013E00F007B814
:1053B00000F009B84FEA430C5FEA5C5C08D081EA70
:1053C000030100F05BB84FEA410C5FEA5C5CF6D188
:1053D0004FF00000014970470000FF070000F87F10
:1053E0000EF1020E2EF0030E5EF8046B364205D469
:1053F000012A43EB030515F5001F12D8012841EBE4
:10540000010C1CF5001F0CD80ED14FEAD17C15F50C
:10541000001F0CEB4C0C0CF1020C08BF4CEBD37CC6
:1054200004E04FF0080C01E04FEAD37C0CEB4C0594
:1054300026FA05F606F00706B6F1040C06D20EEBC6
:10544000860CBDE870404CF0010C6047DFE80CF0C2
:10545000090B02024FF000414FF00000A1F50021BE
:1054600070BD19461046012851EB010418BFD4F550
:10547000001484BF002001F0004170BD0808A0F5B1
:1054800000114FEA3101704710B591EA030F48BF90
:1054900083F000433FF5BCAC841A71EB030C07D2D8
:1054A00012198CF0004C43EB0C03001B61EB0C0158
:1054B000DFF8A4E14FEA1154A4EB135C1EEA430F9A
:1054C00018BF9EEA445F00F0B08023EA6E035242A8
:1054D00021EA0451C3EB6E0338BF5B1EDCF1200EE2
:1054E00025D322FA0CFE10EB0E0043FA0CFE41EB22
:1054F0000E01CCF1200E03FA0EFE10EB0E0051F15E
:105500000001CCF1200E29D412FA0EF201EB045165
:10551000BDE8104058BF7047401C1CBFB2F1004F9F
:10552000704700280CBF491C20F00100704712EBA7
:10553000020E43EB030218BF4FF0010E4EEA420287
:10554000ACF1200CDCF11E0E54D943FA0CFE10EB2A
:105550000E0051F1FF31CCF11E0ED5D50EF1010E2A
:1055600012FA0EFE404141EB010101EB445C5FEA9F
:105570005C5C10D910EBDE7001EB045138BFBEF15A
:10558000004FBDE8104018BF704700280CBF491CF1
:1055900020F00100704730D24FEAD42C11F50011F1
:1055A00024F400641BD0B1FA81F20B3AA41AA41EB1
:1055B000D2F12003914030FA03F31943904001EBFC
:1055C000CC71002C01EB0451BDE81040A8BF70471E
:1055D00001F1C0414FF0000001F000417047B0FA06
:1055E00080F310FA03F100D110BDE41A173C48050E
:1055F000C90AE4E701EB045110BD491001EB045165
:10560000BDE810404FEA300002E04FF00001704763
:105610004A0008BF0042F8D0B2F5001F28BF70470B
:1056200001F000414FF0000070479EEA445F07D050
:1056300011EA5E0FBDE8104004BF00210020704752
:10564000BDE8104070B5FFF7CBFE00BF40DFF63E6F
:1056500083F00041104670470000E0FF43004FEA2E
:10566000D30C4FEA3C0C43401FBF40070CF1605184
:1056700013F0FE4F70471CF0006F03D100200CF0B8
:10568000004170470CF0004343EA507010B540EA07
:10569000CC0000F00EF800BF000000924FEA0001BD
:1056A000FFF7ECBE4FF000414FF00000A1F50021E4
:1056B00070470EF1020E2EF0030E5EF8044B2442EA
:1056C00004D44FEA4102B2F17F4F11D84FEA4003B0
:1056D000B3F17F4F0CD80ED14FEAD07CB2F17F4F9F
:1056E0000CEB4C0C0CF1020C08BF4CEBD17C04E031
:1056F0004FF0080C01E04FEAD17C0CEB4C0324FA8C
:1057000003F404F00704B4F1040C06D20EEB840C8D
:10571000BDE810404CF0010C6047DFE80CF00708D2
:1057200002024FF00040A0F5800010BD0846420084
:1057300018BFD2F1807288BF00F0004010BD4FF05A
:105740004070E1EE100A7047FF2141EAD050C005D9
:105750007047FBF77FBA00005858000800000000AF
:105760000000000000000000000000000002000037
:105770001800000000000000000000004C58000865
:105780000000000000000000000000000000000019
:1057900000020000080000000000000000000000FF
:1057A00000000000000000000102030406070809D1
:1057B000000000000102030402400000000000A0FD
:1057C0000000000005400000000000C800000000CC
:1057D0000C4000000000409C000000001940000048
:1057E0000020BCBE0000000034400000BFC91B8E7A
:1057F00000000004B5400000504BCFD06607E2CF58
:10580000010000006C4100003E8251AADFEEA73487
:1058100001000000D9420000DCB5A0E23A301F9739
:10582000FFFFFFFFB4450000FD25A0C8E9A3C14F5D
:10583000FFFFFFFFFF3F00000000008000000000AE
:10584000FF3F000000000080000000006D795461FF
:10585000736B30320000000064656661756C7454CF
:1058600061736B00B0590008000000209C0000002C
:10587000000200084C5A00089C000020345100002F
:105880001C0200081C00000043000000F8FFFFFF9E
:105890000C0000000E0000000F0000002E000000B1
:1058A0001001000043000000F8FFFFFF00404040EF
:1058B00040404040404041414141414040404040E3
:1058C000404040404040404040404040400502028F
:1058D000020202020202020202020202022020204E
:1058E00020202020202020020202020202029090AA
:1058F00090909090101010101010101010101010A8
:1059000010101010101010100202020202028888FB
:105910008888888808080808080808080808080807
:1059200008080808080808080202020240000000EF
:105930000000000000000000000000000000000067
:105940000000000000000000000000000000000057
:105950000000000000000000000000000000000047
:105960000000000000000000000000000000000037
:105970000000000000000000000000000000000027
:105980000000000000000000000000000000000017
:105990000000000000000000000000000000000007
:1059A00000000000000000000000000000000000F7
:1059B00000000000000000000000000001000000E6
:1059C00010000000000000000024F40000000000AF
:1059D00000000000000000000000000000000000C7
:1059E00000000000000000000000000000000000B7
:1059F00000000000000000000000000000000000A7
:105A00000000000000000000000000000000000096
:105A10000000000000000000000000000000000086
:105A20000000000000000000000000000000000076
:105A30000000000000000000000000000000000066
:0C5A400000000000AAAAAAAA00000000B2
:04000005080001C529
:00000001FF
